{
  "transactions": [
    {
      "hash": "0x9ca46411e64bc969113e93dcc1a08bb34b3732467df3d4aa32c8b2d10e1685d7",
      "transactionType": "CALL",
      "contractName": null,
      "contractAddress": "0x89e20ef8ccdf9fc8d15fb7e69fd9e0458c6ec00c",
      "function": "sendBatch(uint32,string[],bytes[],uint256[])",
      "arguments": [
        "40267",
        "[\"This is an ordered test message1.\", \"This is an ordered test message2.\"]",
        "[0x000301001101000000000000000000000000000186a001000104, 0x000301001101000000000000000000000000000186a001000104]",
        "[27079622715172702, 27079622715172702]"
      ],
      "transaction": {
        "from": "0x436f795b64e23e6ce7792af4923a68afd3967952",
        "to": "0x89e20ef8ccdf9fc8d15fb7e69fd9e0458c6ec00c",
        "gas": "0xdc01d",
        "value": "0xc0698bf92dcebc",
        "input": "0xd3efdb660000000000000000000000000000000000000000000000000000000000009d4b000000000000000000000000000000000000000000000000000000000000008000000000000000000000000000000000000000000000000000000000000001a000000000000000000000000000000000000000000000000000000000000002800000000000000000000000000000000000000000000000000000000000000002000000000000000000000000000000000000000000000000000000000000004000000000000000000000000000000000000000000000000000000000000000a000000000000000000000000000000000000000000000000000000000000000215468697320697320616e206f7264657265642074657374206d657373616765312e0000000000000000000000000000000000000000000000000000000000000000000000000000000000000000000000000000000000000000000000000000215468697320697320616e206f7264657265642074657374206d657373616765322e00000000000000000000000000000000000000000000000000000000000000000000000000000000000000000000000000000000000000000000000000000200000000000000000000000000000000000000000000000000000000000000400000000000000000000000000000000000000000000000000000000000000080000000000000000000000000000000000000000000000000000000000000001a000301001101000000000000000000000000000186a001000104000000000000000000000000000000000000000000000000000000000000000000000000001a000301001101000000000000000000000000000186a0010001040000000000000000000000000000000000000000000000000000000000000000000000000002000000000000000000000000000000000000000000000000006034c5fc96e75e000000000000000000000000000000000000000000000000006034c5fc96e75e",
        "nonce": "0x24",
        "chainId": "0x66eee",
        "accessList": null,
        "type": null
      },
      "additionalContracts": [],
      "isFixedGasLimit": false
    }
  ],
  "receipts": [
    {
      "status": "0x1",
      "cumulativeGasUsed": "0x207ced",
      "logs": [
        {
          "address": "0x4f7cd4da19abb31b0ec98b9066b9e857b1bf9c0e",
          "topics": [
            "0x61ed099e74a97a1d7f8bb0952a88ca8b7b8ebd00c126ea04671f92a81213318a"
          ],
          "data": "0x0000000000000000000000005df3a1cebbd9c8ba7f8df51fd632a9aef8308897000000000000000000000000000000000000000000000000006031dee72cffbd",
          "blockHash": "0xfe897baa8b0ec402526c5b1a48229618388796520cafb51727708fa5afda48ae",
          "blockNumber": "0x3835d27",
          "transactionHash": "0x9ca46411e64bc969113e93dcc1a08bb34b3732467df3d4aa32c8b2d10e1685d7",
          "transactionIndex": "0x2",
          "logIndex": "0x5",
          "removed": false
        },
        {
          "address": "0x4f7cd4da19abb31b0ec98b9066b9e857b1bf9c0e",
          "topics": [
            "0x07ea52d82345d6e838192107d8fd7123d9c2ec8e916cd0aad13fd2b60db24644"
          ],
          "data": "0x000000000000000000000000000000000000000000000000000000000000006000000000000000000000000000000000000000000000000000000000000000a000000000000000000000000000000000000000000000000000000000000000c0000000000000000000000000000000000000000000000000000000000000000100000000000000000000000053f488e93b4f1b60e8e83aa374dbe1780a1ee8a800000000000000000000000000000000000000000000000000000000000000000000000000000000000000000000000000000000000000000000000000000001000000000000000000000000000000000000000000000000000002e71569e7a1",
          "blockHash": "0xfe897baa8b0ec402526c5b1a48229618388796520cafb51727708fa5afda48ae",
          "blockNumber": "0x3835d27",
          "transactionHash": "0x9ca46411e64bc969113e93dcc1a08bb34b3732467df3d4aa32c8b2d10e1685d7",
          "transactionIndex": "0x2",
          "logIndex": "0x6",
          "removed": false
        },
        {
          "address": "0x6edce65403992e310a62460808c4b910d972f10f",
          "topics": [
            "0x1ab700d4ced0c005b164c0f789fd09fcbb0156d4c2041b8a3bfbcd961cd1567f"
          ],
          "data": "0x000000000000000000000000000000000000000000000000000000000000006000000000000000000000000000000000000000000000000000000000000001800000000000000000000000004f7cd4da19abb31b0ec98b9066b9e857b1bf9c0e00000000000000000000000000000000000000000000000000000000000000f101000000000000000100009d2700000000000000000000000089e20ef8ccdf9fc8d15fb7e69fd9e0458c6ec00c00009d4b000000000000000000000000143c2ad2e9bfa8d8d477f68be32202b56a83d1afc9e51eac927cdfc2a6d442ab3e811ee37ca5a8e2d2b4303783039cf943f9e0ba000000000000000000000000000000000000000000000000000000000000002000000000000000000000000000000000000000000000000000000000000000215468697320697320616e206f7264657265642074657374206d657373616765312e00000000000000000000000000000000000000000000000000000000000000000000000000000000000000000000000000000000000000000000000000000000000000000000000000000000001a000301001101000000000000000000000000000186a001000104000000000000",
          "blockHash": "0xfe897baa8b0ec402526c5b1a48229618388796520cafb51727708fa5afda48ae",
          "blockNumber": "0x3835d27",
          "transactionHash": "0x9ca46411e64bc969113e93dcc1a08bb34b3732467df3d4aa32c8b2d10e1685d7",
          "transactionIndex": "0x2",
          "logIndex": "0x7",
          "removed": false
        },
        {
          "address": "0x4f7cd4da19abb31b0ec98b9066b9e857b1bf9c0e",
          "topics": [
            "0x61ed099e74a97a1d7f8bb0952a88ca8b7b8ebd00c126ea04671f92a81213318a"
          ],
          "data": "0x0000000000000000000000005df3a1cebbd9c8ba7f8df51fd632a9aef8308897000000000000000000000000000000000000000000000000006031dee72cffbd",
          "blockHash": "0xfe897baa8b0ec402526c5b1a48229618388796520cafb51727708fa5afda48ae",
          "blockNumber": "0x3835d27",
          "transactionHash": "0x9ca46411e64bc969113e93dcc1a08bb34b3732467df3d4aa32c8b2d10e1685d7",
          "transactionIndex": "0x2",
          "logIndex": "0x8",
          "removed": false
        },
        {
          "address": "0x4f7cd4da19abb31b0ec98b9066b9e857b1bf9c0e",
          "topics": [
            "0x07ea52d82345d6e838192107d8fd7123d9c2ec8e916cd0aad13fd2b60db24644"
          ],
          "data": "0x000000000000000000000000000000000000000000000000000000000000006000000000000000000000000000000000000000000000000000000000000000a000000000000000000000000000000000000000000000000000000000000000c0000000000000000000000000000000000000000000000000000000000000000100000000000000000000000053f488e93b4f1b60e8e83aa374dbe1780a1ee8a800000000000000000000000000000000000000000000000000000000000000000000000000000000000000000000000000000000000000000000000000000001000000000000000000000000000000000000000000000000000002e71569e7a1",
          "blockHash": "0xfe897baa8b0ec402526c5b1a48229618388796520cafb51727708fa5afda48ae",
          "blockNumber": "0x3835d27",
          "transactionHash": "0x9ca46411e64bc969113e93dcc1a08bb34b3732467df3d4aa32c8b2d10e1685d7",
          "transactionIndex": "0x2",
          "logIndex": "0x9",
          "removed": false
        },
        {
          "address": "0x6edce65403992e310a62460808c4b910d972f10f",
          "topics": [
            "0x1ab700d4ced0c005b164c0f789fd09fcbb0156d4c2041b8a3bfbcd961cd1567f"
          ],
          "data": "0x000000000000000000000000000000000000000000000000000000000000006000000000000000000000000000000000000000000000000000000000000001800000000000000000000000004f7cd4da19abb31b0ec98b9066b9e857b1bf9c0e00000000000000000000000000000000000000000000000000000000000000f101000000000000000200009d2700000000000000000000000089e20ef8ccdf9fc8d15fb7e69fd9e0458c6ec00c00009d4b000000000000000000000000143c2ad2e9bfa8d8d477f68be32202b56a83d1afc848554c22d8bcef824ee19594b950560557eb83c2d6dbce25adca22eab30d2a000000000000000000000000000000000000000000000000000000000000002000000000000000000000000000000000000000000000000000000000000000215468697320697320616e206f7264657265642074657374206d657373616765322e00000000000000000000000000000000000000000000000000000000000000000000000000000000000000000000000000000000000000000000000000000000000000000000000000000000001a000301001101000000000000000000000000000186a001000104000000000000",
          "blockHash": "0xfe897baa8b0ec402526c5b1a48229618388796520cafb51727708fa5afda48ae",
          "blockNumber": "0x3835d27",
          "transactionHash": "0x9ca46411e64bc969113e93dcc1a08bb34b3732467df3d4aa32c8b2d10e1685d7",
          "transactionIndex": "0x2",
          "logIndex": "0xa",
          "removed": false
        }
      ],
      "logsBloom": "0x00000000000000000000000000000000000000000000000000000000000000000000000000000000200000000000000000000000008000000000000000000000000000000000000000000000000000000000000000000000000000000000000000000000000000008200000000000000000000000000000000000000000000000000000000000020000000080000000000000000000000010000000000000000000000008000000000102000000000000000000000400000000440000000000000000000000000000000000000000000000000000000000000000000000000000000040000000000000000000000002000000000000000000000000000000000",
      "type": "0x2",
      "transactionHash": "0x9ca46411e64bc969113e93dcc1a08bb34b3732467df3d4aa32c8b2d10e1685d7",
      "transactionIndex": "0x2",
      "blockHash": "0xfe897baa8b0ec402526c5b1a48229618388796520cafb51727708fa5afda48ae",
      "blockNumber": "0x3835d27",
      "gasUsed": "0x96aa5",
      "effectiveGasPrice": "0x5f5e100",
      "from": "0x436f795b64e23e6ce7792af4923a68afd3967952",
      "to": "0x89e20ef8ccdf9fc8d15fb7e69fd9e0458c6ec00c",
      "contractAddress": null,
      "gasUsedForL1": "0x4c8ae",
      "l1BlockNumber": "0x5e980a"
    }
  ],
  "libraries": [],
  "pending": [],
  "returns": {},
  "timestamp": 1719508703,
  "chain": 421614,
  "commit": "089d489"
}