{
  "transactions": [
    {
      "hash": "0x0dc4be4fb4829d97a33ed4e8ef5b4c53cb697af2f62c766ef0d85d92b873ed0b",
      "transactionType": "CALL",
      "contractName": null,
      "contractAddress": "0x12f35bfdb8ea90a55c09af4745fccd7d609b058b",
      "function": "sendBatch(uint32,string[],bytes[],uint256[])",
      "arguments": [
        "40267",
        "[\"This is an ordered test message1.\", \"This is an ordered test message2.\"]",
        "[0x000301003102000000000000000000000000000186a0143c2ad2e9bfa8d8d477f68be32202b56a83d1af0000000000000000000000000100110100000000000000000000000000013880, 0x000301003102000000000000000000000000000186a0143c2ad2e9bfa8d8d477f68be32202b56a83d1af0000000000000000000000000100110100000000000000000000000000013880]",
        "[27080128256392891, 27080128256392891]"
      ],
      "transaction": {
        "from": "0x436f795b64e23e6ce7792af4923a68afd3967952",
        "to": "0x12f35bfdb8ea90a55c09af4745fccd7d609b058b",
        "gas": "0x1f764a",
        "value": "0xc06a7762637d76",
        "input": "0xd3efdb660000000000000000000000000000000000000000000000000000000000009d4b000000000000000000000000000000000000000000000000000000000000008000000000000000000000000000000000000000000000000000000000000001a000000000000000000000000000000000000000000000000000000000000003000000000000000000000000000000000000000000000000000000000000000002000000000000000000000000000000000000000000000000000000000000004000000000000000000000000000000000000000000000000000000000000000a000000000000000000000000000000000000000000000000000000000000000215468697320697320616e206f7264657265642074657374206d657373616765312e0000000000000000000000000000000000000000000000000000000000000000000000000000000000000000000000000000000000000000000000000000215468697320697320616e206f7264657265642074657374206d657373616765322e000000000000000000000000000000000000000000000000000000000000000000000000000000000000000000000000000000000000000000000000000002000000000000000000000000000000000000000000000000000000000000004000000000000000000000000000000000000000000000000000000000000000c0000000000000000000000000000000000000000000000000000000000000004a000301003102000000000000000000000000000186a0143c2ad2e9bfa8d8d477f68be32202b56a83d1af000000000000000000000000010011010000000000000000000000000001388000000000000000000000000000000000000000000000000000000000000000000000000000000000000000000000000000000000004a000301003102000000000000000000000000000186a0143c2ad2e9bfa8d8d477f68be32202b56a83d1af00000000000000000000000001001101000000000000000000000000000138800000000000000000000000000000000000000000000000000000000000000000000000000000000000000000000000000000000000020000000000000000000000000000000000000000000000000060353bb131bebb0000000000000000000000000000000000000000000000000060353bb131bebb",
        "nonce": "0x21",
        "chainId": "0x66eee",
        "accessList": null,
        "type": null
      },
      "additionalContracts": [],
      "isFixedGasLimit": false
    }
  ],
  "receipts": [
    {
      "status": "0x1",
      "cumulativeGasUsed": "0x14cdaf",
      "logs": [
        {
          "address": "0x4f7cd4da19abb31b0ec98b9066b9e857b1bf9c0e",
          "topics": [
            "0x61ed099e74a97a1d7f8bb0952a88ca8b7b8ebd00c126ea04671f92a81213318a"
          ],
          "data": "0x0000000000000000000000005df3a1cebbd9c8ba7f8df51fd632a9aef83088970000000000000000000000000000000000000000000000000060321ef3287264",
          "blockHash": "0xabef0621c6448c4b011c9beb36a5e645c9cc2b252e8d5156c36232b13c116f66",
          "blockNumber": "0x3835767",
          "transactionHash": "0x0dc4be4fb4829d97a33ed4e8ef5b4c53cb697af2f62c766ef0d85d92b873ed0b",
          "transactionIndex": "0x1",
          "logIndex": "0x0",
          "removed": false
        },
        {
          "address": "0x4f7cd4da19abb31b0ec98b9066b9e857b1bf9c0e",
          "topics": [
            "0x07ea52d82345d6e838192107d8fd7123d9c2ec8e916cd0aad13fd2b60db24644"
          ],
          "data": "0x000000000000000000000000000000000000000000000000000000000000006000000000000000000000000000000000000000000000000000000000000000a000000000000000000000000000000000000000000000000000000000000000c0000000000000000000000000000000000000000000000000000000000000000100000000000000000000000053f488e93b4f1b60e8e83aa374dbe1780a1ee8a8000000000000000000000000000000000000000000000000000000000000000000000000000000000000000000000000000000000000000000000000000000010000000000000000000000000000000000000000000000000000031cbe094c57",
          "blockHash": "0xabef0621c6448c4b011c9beb36a5e645c9cc2b252e8d5156c36232b13c116f66",
          "blockNumber": "0x3835767",
          "transactionHash": "0x0dc4be4fb4829d97a33ed4e8ef5b4c53cb697af2f62c766ef0d85d92b873ed0b",
          "transactionIndex": "0x1",
          "logIndex": "0x1",
          "removed": false
        },
        {
          "address": "0x6edce65403992e310a62460808c4b910d972f10f",
          "topics": [
            "0x1ab700d4ced0c005b164c0f789fd09fcbb0156d4c2041b8a3bfbcd961cd1567f"
          ],
          "data": "0x000000000000000000000000000000000000000000000000000000000000006000000000000000000000000000000000000000000000000000000000000001800000000000000000000000004f7cd4da19abb31b0ec98b9066b9e857b1bf9c0e00000000000000000000000000000000000000000000000000000000000000f101000000000000000100009d2700000000000000000000000012f35bfdb8ea90a55c09af4745fccd7d609b058b00009d4b000000000000000000000000143c2ad2e9bfa8d8d477f68be32202b56a83d1af1a4aac53b85f937d69380135f754ad0322a25d5ca10ac46e4b5cf1b754945c3a000000000000000000000000000000000000000000000000000000000000002000000000000000000000000000000000000000000000000000000000000000215468697320697320616e206f7264657265642074657374206d657373616765312e00000000000000000000000000000000000000000000000000000000000000000000000000000000000000000000000000000000000000000000000000000000000000000000000000000000004a000301003102000000000000000000000000000186a0143c2ad2e9bfa8d8d477f68be32202b56a83d1af000000000000000000000000010011010000000000000000000000000001388000000000000000000000000000000000000000000000",
          "blockHash": "0xabef0621c6448c4b011c9beb36a5e645c9cc2b252e8d5156c36232b13c116f66",
          "blockNumber": "0x3835767",
          "transactionHash": "0x0dc4be4fb4829d97a33ed4e8ef5b4c53cb697af2f62c766ef0d85d92b873ed0b",
          "transactionIndex": "0x1",
          "logIndex": "0x2",
          "removed": false
        },
        {
          "address": "0x4f7cd4da19abb31b0ec98b9066b9e857b1bf9c0e",
          "topics": [
            "0x61ed099e74a97a1d7f8bb0952a88ca8b7b8ebd00c126ea04671f92a81213318a"
          ],
          "data": "0x0000000000000000000000005df3a1cebbd9c8ba7f8df51fd632a9aef83088970000000000000000000000000000000000000000000000000060321ef3287264",
          "blockHash": "0xabef0621c6448c4b011c9beb36a5e645c9cc2b252e8d5156c36232b13c116f66",
          "blockNumber": "0x3835767",
          "transactionHash": "0x0dc4be4fb4829d97a33ed4e8ef5b4c53cb697af2f62c766ef0d85d92b873ed0b",
          "transactionIndex": "0x1",
          "logIndex": "0x3",
          "removed": false
        },
        {
          "address": "0x4f7cd4da19abb31b0ec98b9066b9e857b1bf9c0e",
          "topics": [
            "0x07ea52d82345d6e838192107d8fd7123d9c2ec8e916cd0aad13fd2b60db24644"
          ],
          "data": "0x000000000000000000000000000000000000000000000000000000000000006000000000000000000000000000000000000000000000000000000000000000a000000000000000000000000000000000000000000000000000000000000000c0000000000000000000000000000000000000000000000000000000000000000100000000000000000000000053f488e93b4f1b60e8e83aa374dbe1780a1ee8a8000000000000000000000000000000000000000000000000000000000000000000000000000000000000000000000000000000000000000000000000000000010000000000000000000000000000000000000000000000000000031cbe094c57",
          "blockHash": "0xabef0621c6448c4b011c9beb36a5e645c9cc2b252e8d5156c36232b13c116f66",
          "blockNumber": "0x3835767",
          "transactionHash": "0x0dc4be4fb4829d97a33ed4e8ef5b4c53cb697af2f62c766ef0d85d92b873ed0b",
          "transactionIndex": "0x1",
          "logIndex": "0x4",
          "removed": false
        },
        {
          "address": "0x6edce65403992e310a62460808c4b910d972f10f",
          "topics": [
            "0x1ab700d4ced0c005b164c0f789fd09fcbb0156d4c2041b8a3bfbcd961cd1567f"
          ],
          "data": "0x000000000000000000000000000000000000000000000000000000000000006000000000000000000000000000000000000000000000000000000000000001800000000000000000000000004f7cd4da19abb31b0ec98b9066b9e857b1bf9c0e00000000000000000000000000000000000000000000000000000000000000f101000000000000000200009d2700000000000000000000000012f35bfdb8ea90a55c09af4745fccd7d609b058b00009d4b000000000000000000000000143c2ad2e9bfa8d8d477f68be32202b56a83d1afa8a9bc8fca74504a03c403bc5cb0852b4c05c55a6b96437afb699063c395b166000000000000000000000000000000000000000000000000000000000000002000000000000000000000000000000000000000000000000000000000000000215468697320697320616e206f7264657265642074657374206d657373616765322e00000000000000000000000000000000000000000000000000000000000000000000000000000000000000000000000000000000000000000000000000000000000000000000000000000000004a000301003102000000000000000000000000000186a0143c2ad2e9bfa8d8d477f68be32202b56a83d1af000000000000000000000000010011010000000000000000000000000001388000000000000000000000000000000000000000000000",
          "blockHash": "0xabef0621c6448c4b011c9beb36a5e645c9cc2b252e8d5156c36232b13c116f66",
          "blockNumber": "0x3835767",
          "transactionHash": "0x0dc4be4fb4829d97a33ed4e8ef5b4c53cb697af2f62c766ef0d85d92b873ed0b",
          "transactionIndex": "0x1",
          "logIndex": "0x5",
          "removed": false
        }
      ],
      "logsBloom": "0x00000000000000000000000000000000000000000000000000000000000000000000000000000000200000000000000000000000008000000000000000000000000000000000000000000000000000000000000000000000000000000000000000000000000000008200000000000000000000000000000000000000000000000000000000000020000000080000000000000000000000010000000000000000000000008000000000102000000000000000000000400000000440000000000000000000000000000000000000000000000000000000000000000000000000000000040000000000000000000000002000000000000000000000000000000000",
      "type": "0x2",
      "transactionHash": "0x0dc4be4fb4829d97a33ed4e8ef5b4c53cb697af2f62c766ef0d85d92b873ed0b",
      "transactionIndex": "0x1",
      "blockHash": "0xabef0621c6448c4b011c9beb36a5e645c9cc2b252e8d5156c36232b13c116f66",
      "blockNumber": "0x3835767",
      "gasUsed": "0x14cdaf",
      "effectiveGasPrice": "0x5f5e100",
      "from": "0x436f795b64e23e6ce7792af4923a68afd3967952",
      "to": "0x12f35bfdb8ea90a55c09af4745fccd7d609b058b",
      "contractAddress": null,
      "gasUsedForL1": "0x101a8a",
      "l1BlockNumber": "0x5e97e7"
    }
  ],
  "libraries": [],
  "pending": [],
  "returns": {},
  "timestamp": 1719508296,
  "chain": 421614,
  "commit": "089d489"
}