{
  "transactions": [
    {
      "hash": "0x7b80ca0745e6674d0e75fa178c9b338da7616536ac770a01c28c6c158015c8cd",
      "transactionType": "CALL",
      "contractName": null,
      "contractAddress": "0xf6a6de2617640563a89d3cffb117845254869aea",
      "function": "sendBatch(uint32,string[],bytes[],uint256[])",
      "arguments": [
        "40267",
        "[\"This is an ordered test message1.\", \"This is an ordered test message2.\"]",
        "[0x000301003102000000000000000000000000000186a0143c2ad2e9bfa8d8d477f68be32202b56a83d1af000000000000000000000000010011010000000000000000000000000001388001000104, 0x000301003102000000000000000000000000000186a0143c2ad2e9bfa8d8d477f68be32202b56a83d1af000000000000000000000000010011010000000000000000000000000001388001000104]",
        "[27079610655803310, 27079610655803310]"
      ],
      "transaction": {
        "from": "0x436f795b64e23e6ce7792af4923a68afd3967952",
        "to": "0xf6a6de2617640563a89d3cffb117845254869aea",
        "gas": "0x29e7c4",
        "value": "0xc069865b970f5c",
        "input": "0xd3efdb660000000000000000000000000000000000000000000000000000000000009d4b000000000000000000000000000000000000000000000000000000000000008000000000000000000000000000000000000000000000000000000000000001a000000000000000000000000000000000000000000000000000000000000003000000000000000000000000000000000000000000000000000000000000000002000000000000000000000000000000000000000000000000000000000000004000000000000000000000000000000000000000000000000000000000000000a000000000000000000000000000000000000000000000000000000000000000215468697320697320616e206f7264657265642074657374206d657373616765312e0000000000000000000000000000000000000000000000000000000000000000000000000000000000000000000000000000000000000000000000000000215468697320697320616e206f7264657265642074657374206d657373616765322e000000000000000000000000000000000000000000000000000000000000000000000000000000000000000000000000000000000000000000000000000002000000000000000000000000000000000000000000000000000000000000004000000000000000000000000000000000000000000000000000000000000000c0000000000000000000000000000000000000000000000000000000000000004e000301003102000000000000000000000000000186a0143c2ad2e9bfa8d8d477f68be32202b56a83d1af000000000000000000000000010011010000000000000000000000000001388001000104000000000000000000000000000000000000000000000000000000000000000000000000000000000000000000000000004e000301003102000000000000000000000000000186a0143c2ad2e9bfa8d8d477f68be32202b56a83d1af0000000000000000000000000100110100000000000000000000000000013880010001040000000000000000000000000000000000000000000000000000000000000000000000000000000000000000000000000002000000000000000000000000000000000000000000000000006034c32dcb87ae000000000000000000000000000000000000000000000000006034c32dcb87ae",
        "nonce": "0x1c",
        "chainId": "0x66eee",
        "accessList": null,
        "type": null
      },
      "additionalContracts": [],
      "isFixedGasLimit": false
    }
  ],
  "receipts": [
    {
      "status": "0x1",
      "cumulativeGasUsed": "0x3474767",
      "logs": [
        {
          "address": "0x4f7cd4da19abb31b0ec98b9066b9e857b1bf9c0e",
          "topics": [
            "0x61ed099e74a97a1d7f8bb0952a88ca8b7b8ebd00c126ea04671f92a81213318a"
          ],
          "data": "0x0000000000000000000000005df3a1cebbd9c8ba7f8df51fd632a9aef8308897000000000000000000000000000000000000000000000000006031d490724506",
          "blockHash": "0x50c59912b11ad2c8ee2bed05706f68e4d9e8c126b01c080ea7d68f639d75df19",
          "blockNumber": "0x382c994",
          "transactionHash": "0x7b80ca0745e6674d0e75fa178c9b338da7616536ac770a01c28c6c158015c8cd",
          "transactionIndex": "0x3",
          "logIndex": "0x4a",
          "removed": false
        },
        {
          "address": "0x4f7cd4da19abb31b0ec98b9066b9e857b1bf9c0e",
          "topics": [
            "0x07ea52d82345d6e838192107d8fd7123d9c2ec8e916cd0aad13fd2b60db24644"
          ],
          "data": "0x000000000000000000000000000000000000000000000000000000000000006000000000000000000000000000000000000000000000000000000000000000a000000000000000000000000000000000000000000000000000000000000000c0000000000000000000000000000000000000000000000000000000000000000100000000000000000000000053f488e93b4f1b60e8e83aa374dbe1780a1ee8a800000000000000000000000000000000000000000000000000000000000000000000000000000000000000000000000000000000000000000000000000000001000000000000000000000000000000000000000000000000000002ee9d5942a8",
          "blockHash": "0x50c59912b11ad2c8ee2bed05706f68e4d9e8c126b01c080ea7d68f639d75df19",
          "blockNumber": "0x382c994",
          "transactionHash": "0x7b80ca0745e6674d0e75fa178c9b338da7616536ac770a01c28c6c158015c8cd",
          "transactionIndex": "0x3",
          "logIndex": "0x4b",
          "removed": false
        },
        {
          "address": "0x6edce65403992e310a62460808c4b910d972f10f",
          "topics": [
            "0x1ab700d4ced0c005b164c0f789fd09fcbb0156d4c2041b8a3bfbcd961cd1567f"
          ],
          "data": "0x000000000000000000000000000000000000000000000000000000000000006000000000000000000000000000000000000000000000000000000000000001800000000000000000000000004f7cd4da19abb31b0ec98b9066b9e857b1bf9c0e00000000000000000000000000000000000000000000000000000000000000f101000000000000000100009d27000000000000000000000000f6a6de2617640563a89d3cffb117845254869aea00009d4b000000000000000000000000143c2ad2e9bfa8d8d477f68be32202b56a83d1afc2f4e3d29173d72bc6e43ab4900122728b7b27672b9acf213d9a9e413f81b7b9000000000000000000000000000000000000000000000000000000000000002000000000000000000000000000000000000000000000000000000000000000215468697320697320616e206f7264657265642074657374206d657373616765312e00000000000000000000000000000000000000000000000000000000000000000000000000000000000000000000000000000000000000000000000000000000000000000000000000000000004e000301003102000000000000000000000000000186a0143c2ad2e9bfa8d8d477f68be32202b56a83d1af000000000000000000000000010011010000000000000000000000000001388001000104000000000000000000000000000000000000",
          "blockHash": "0x50c59912b11ad2c8ee2bed05706f68e4d9e8c126b01c080ea7d68f639d75df19",
          "blockNumber": "0x382c994",
          "transactionHash": "0x7b80ca0745e6674d0e75fa178c9b338da7616536ac770a01c28c6c158015c8cd",
          "transactionIndex": "0x3",
          "logIndex": "0x4c",
          "removed": false
        },
        {
          "address": "0x4f7cd4da19abb31b0ec98b9066b9e857b1bf9c0e",
          "topics": [
            "0x61ed099e74a97a1d7f8bb0952a88ca8b7b8ebd00c126ea04671f92a81213318a"
          ],
          "data": "0x0000000000000000000000005df3a1cebbd9c8ba7f8df51fd632a9aef8308897000000000000000000000000000000000000000000000000006031d490724506",
          "blockHash": "0x50c59912b11ad2c8ee2bed05706f68e4d9e8c126b01c080ea7d68f639d75df19",
          "blockNumber": "0x382c994",
          "transactionHash": "0x7b80ca0745e6674d0e75fa178c9b338da7616536ac770a01c28c6c158015c8cd",
          "transactionIndex": "0x3",
          "logIndex": "0x4d",
          "removed": false
        },
        {
          "address": "0x4f7cd4da19abb31b0ec98b9066b9e857b1bf9c0e",
          "topics": [
            "0x07ea52d82345d6e838192107d8fd7123d9c2ec8e916cd0aad13fd2b60db24644"
          ],
          "data": "0x000000000000000000000000000000000000000000000000000000000000006000000000000000000000000000000000000000000000000000000000000000a000000000000000000000000000000000000000000000000000000000000000c0000000000000000000000000000000000000000000000000000000000000000100000000000000000000000053f488e93b4f1b60e8e83aa374dbe1780a1ee8a800000000000000000000000000000000000000000000000000000000000000000000000000000000000000000000000000000000000000000000000000000001000000000000000000000000000000000000000000000000000002ee9d5942a8",
          "blockHash": "0x50c59912b11ad2c8ee2bed05706f68e4d9e8c126b01c080ea7d68f639d75df19",
          "blockNumber": "0x382c994",
          "transactionHash": "0x7b80ca0745e6674d0e75fa178c9b338da7616536ac770a01c28c6c158015c8cd",
          "transactionIndex": "0x3",
          "logIndex": "0x4e",
          "removed": false
        },
        {
          "address": "0x6edce65403992e310a62460808c4b910d972f10f",
          "topics": [
            "0x1ab700d4ced0c005b164c0f789fd09fcbb0156d4c2041b8a3bfbcd961cd1567f"
          ],
          "data": "0x000000000000000000000000000000000000000000000000000000000000006000000000000000000000000000000000000000000000000000000000000001800000000000000000000000004f7cd4da19abb31b0ec98b9066b9e857b1bf9c0e00000000000000000000000000000000000000000000000000000000000000f101000000000000000200009d27000000000000000000000000f6a6de2617640563a89d3cffb117845254869aea00009d4b000000000000000000000000143c2ad2e9bfa8d8d477f68be32202b56a83d1af8f2f78d0beaa4f5507163c1587aa09332c6bdbd99e123a0da4c3175854810703000000000000000000000000000000000000000000000000000000000000002000000000000000000000000000000000000000000000000000000000000000215468697320697320616e206f7264657265642074657374206d657373616765322e00000000000000000000000000000000000000000000000000000000000000000000000000000000000000000000000000000000000000000000000000000000000000000000000000000000004e000301003102000000000000000000000000000186a0143c2ad2e9bfa8d8d477f68be32202b56a83d1af000000000000000000000000010011010000000000000000000000000001388001000104000000000000000000000000000000000000",
          "blockHash": "0x50c59912b11ad2c8ee2bed05706f68e4d9e8c126b01c080ea7d68f639d75df19",
          "blockNumber": "0x382c994",
          "transactionHash": "0x7b80ca0745e6674d0e75fa178c9b338da7616536ac770a01c28c6c158015c8cd",
          "transactionIndex": "0x3",
          "logIndex": "0x4f",
          "removed": false
        }
      ],
      "logsBloom": "0x00000000000000000000000000000000000000000000000000000000000000000000000000000000200000000000000000000000008000000000000000000000000000000000000000000000000000000000000000000000000000000000000000000000000000008200000000000000000000000000000000000000000000000000000000000020000000080000000000000000000000010000000000000000000000008000000000102000000000000000000000400000000440000000000000000000000000000000000000000000000000000000000000000000000000000000040000000000000000000000002000000000000000000000000000000000",
      "type": "0x2",
      "transactionHash": "0x7b80ca0745e6674d0e75fa178c9b338da7616536ac770a01c28c6c158015c8cd",
      "transactionIndex": "0x3",
      "blockHash": "0x50c59912b11ad2c8ee2bed05706f68e4d9e8c126b01c080ea7d68f639d75df19",
      "blockNumber": "0x382c994",
      "gasUsed": "0x1bb85c",
      "effectiveGasPrice": "0x5f5e100",
      "from": "0x436f795b64e23e6ce7792af4923a68afd3967952",
      "to": "0xf6a6de2617640563a89d3cffb117845254869aea",
      "contractAddress": null,
      "gasUsedForL1": "0x16f7a7",
      "l1BlockNumber": "0x5e94b6"
    }
  ],
  "libraries": [],
  "pending": [],
  "returns": {},
  "timestamp": 1719498471,
  "chain": 421614,
  "commit": "089d489"
}