{
  "transactions": [
    {
      "hash": "0x430af3ac268dabc6e26215fdf3f6a05d6e4057c6dcb51ce2e973d52548e8281f",
      "transactionType": "CALL",
      "contractName": null,
      "contractAddress": "0xf6a6de2617640563a89d3cffb117845254869aea",
      "function": "sendBatch(uint32,string[],bytes[],uint256[])",
      "arguments": [
        "40267",
        "[\"This is an ordered test message1.\", \"This is an ordered test message2.\"]",
        "[0x000301003102000000000000000000000000000186a0143c2ad2e9bfa8d8d477f68be32202b56a83d1af0000000000000000000000000100110100000000000000000000000000013880, 0x000301003102000000000000000000000000000186a0143c2ad2e9bfa8d8d477f68be32202b56a83d1af0000000000000000000000000100110100000000000000000000000000013880]",
        "[27079549537674113, 27079549537674113]"
      ],
      "transaction": {
        "from": "0x436f795b64e23e6ce7792af4923a68afd3967952",
        "to": "0xf6a6de2617640563a89d3cffb117845254869aea",
        "gas": "0x18e283",
        "value": "0xc06969e5bdc702",
        "input": "0xd3efdb660000000000000000000000000000000000000000000000000000000000009d4b000000000000000000000000000000000000000000000000000000000000008000000000000000000000000000000000000000000000000000000000000001a000000000000000000000000000000000000000000000000000000000000003000000000000000000000000000000000000000000000000000000000000000002000000000000000000000000000000000000000000000000000000000000004000000000000000000000000000000000000000000000000000000000000000a000000000000000000000000000000000000000000000000000000000000000215468697320697320616e206f7264657265642074657374206d657373616765312e0000000000000000000000000000000000000000000000000000000000000000000000000000000000000000000000000000000000000000000000000000215468697320697320616e206f7264657265642074657374206d657373616765322e000000000000000000000000000000000000000000000000000000000000000000000000000000000000000000000000000000000000000000000000000002000000000000000000000000000000000000000000000000000000000000004000000000000000000000000000000000000000000000000000000000000000c0000000000000000000000000000000000000000000000000000000000000004a000301003102000000000000000000000000000186a0143c2ad2e9bfa8d8d477f68be32202b56a83d1af000000000000000000000000010011010000000000000000000000000001388000000000000000000000000000000000000000000000000000000000000000000000000000000000000000000000000000000000004a000301003102000000000000000000000000000186a0143c2ad2e9bfa8d8d477f68be32202b56a83d1af0000000000000000000000000100110100000000000000000000000000013880000000000000000000000000000000000000000000000000000000000000000000000000000000000000000000000000000000000002000000000000000000000000000000000000000000000000006034b4f2dee381000000000000000000000000000000000000000000000000006034b4f2dee381",
        "nonce": "0x1e",
        "chainId": "0x66eee",
        "accessList": null,
        "type": null
      },
      "additionalContracts": [],
      "isFixedGasLimit": false
    }
  ],
  "receipts": [
    {
      "status": "0x1",
      "cumulativeGasUsed": "0xcedd88",
      "logs": [
        {
          "address": "0x4f7cd4da19abb31b0ec98b9066b9e857b1bf9c0e",
          "topics": [
            "0x61ed099e74a97a1d7f8bb0952a88ca8b7b8ebd00c126ea04671f92a81213318a"
          ],
          "data": "0x0000000000000000000000005df3a1cebbd9c8ba7f8df51fd632a9aef8308897000000000000000000000000000000000000000000000000006031ca1be4b4d8",
          "blockHash": "0x8071e3682159b82d2789281f7dc404ee3a1da0a1a9935c4c68a030b451642057",
          "blockNumber": "0x383025e",
          "transactionHash": "0x430af3ac268dabc6e26215fdf3f6a05d6e4057c6dcb51ce2e973d52548e8281f",
          "transactionIndex": "0x4",
          "logIndex": "0xd",
          "removed": false
        },
        {
          "address": "0x4f7cd4da19abb31b0ec98b9066b9e857b1bf9c0e",
          "topics": [
            "0x07ea52d82345d6e838192107d8fd7123d9c2ec8e916cd0aad13fd2b60db24644"
          ],
          "data": "0x000000000000000000000000000000000000000000000000000000000000006000000000000000000000000000000000000000000000000000000000000000a000000000000000000000000000000000000000000000000000000000000000c0000000000000000000000000000000000000000000000000000000000000000100000000000000000000000053f488e93b4f1b60e8e83aa374dbe1780a1ee8a800000000000000000000000000000000000000000000000000000000000000000000000000000000000000000000000000000000000000000000000000000001000000000000000000000000000000000000000000000000000002ead6fa2ea9",
          "blockHash": "0x8071e3682159b82d2789281f7dc404ee3a1da0a1a9935c4c68a030b451642057",
          "blockNumber": "0x383025e",
          "transactionHash": "0x430af3ac268dabc6e26215fdf3f6a05d6e4057c6dcb51ce2e973d52548e8281f",
          "transactionIndex": "0x4",
          "logIndex": "0xe",
          "removed": false
        },
        {
          "address": "0x6edce65403992e310a62460808c4b910d972f10f",
          "topics": [
            "0x1ab700d4ced0c005b164c0f789fd09fcbb0156d4c2041b8a3bfbcd961cd1567f"
          ],
          "data": "0x000000000000000000000000000000000000000000000000000000000000006000000000000000000000000000000000000000000000000000000000000001800000000000000000000000004f7cd4da19abb31b0ec98b9066b9e857b1bf9c0e00000000000000000000000000000000000000000000000000000000000000f101000000000000000500009d27000000000000000000000000f6a6de2617640563a89d3cffb117845254869aea00009d4b000000000000000000000000143c2ad2e9bfa8d8d477f68be32202b56a83d1afc4cc267395ecd338b7631fd768a38511c82e0ce6be19853993ef18daa21153bb000000000000000000000000000000000000000000000000000000000000002000000000000000000000000000000000000000000000000000000000000000215468697320697320616e206f7264657265642074657374206d657373616765312e00000000000000000000000000000000000000000000000000000000000000000000000000000000000000000000000000000000000000000000000000000000000000000000000000000000004a000301003102000000000000000000000000000186a0143c2ad2e9bfa8d8d477f68be32202b56a83d1af000000000000000000000000010011010000000000000000000000000001388000000000000000000000000000000000000000000000",
          "blockHash": "0x8071e3682159b82d2789281f7dc404ee3a1da0a1a9935c4c68a030b451642057",
          "blockNumber": "0x383025e",
          "transactionHash": "0x430af3ac268dabc6e26215fdf3f6a05d6e4057c6dcb51ce2e973d52548e8281f",
          "transactionIndex": "0x4",
          "logIndex": "0xf",
          "removed": false
        },
        {
          "address": "0x4f7cd4da19abb31b0ec98b9066b9e857b1bf9c0e",
          "topics": [
            "0x61ed099e74a97a1d7f8bb0952a88ca8b7b8ebd00c126ea04671f92a81213318a"
          ],
          "data": "0x0000000000000000000000005df3a1cebbd9c8ba7f8df51fd632a9aef8308897000000000000000000000000000000000000000000000000006031ca1be4b4d8",
          "blockHash": "0x8071e3682159b82d2789281f7dc404ee3a1da0a1a9935c4c68a030b451642057",
          "blockNumber": "0x383025e",
          "transactionHash": "0x430af3ac268dabc6e26215fdf3f6a05d6e4057c6dcb51ce2e973d52548e8281f",
          "transactionIndex": "0x4",
          "logIndex": "0x10",
          "removed": false
        },
        {
          "address": "0x4f7cd4da19abb31b0ec98b9066b9e857b1bf9c0e",
          "topics": [
            "0x07ea52d82345d6e838192107d8fd7123d9c2ec8e916cd0aad13fd2b60db24644"
          ],
          "data": "0x000000000000000000000000000000000000000000000000000000000000006000000000000000000000000000000000000000000000000000000000000000a000000000000000000000000000000000000000000000000000000000000000c0000000000000000000000000000000000000000000000000000000000000000100000000000000000000000053f488e93b4f1b60e8e83aa374dbe1780a1ee8a800000000000000000000000000000000000000000000000000000000000000000000000000000000000000000000000000000000000000000000000000000001000000000000000000000000000000000000000000000000000002ead6fa2ea9",
          "blockHash": "0x8071e3682159b82d2789281f7dc404ee3a1da0a1a9935c4c68a030b451642057",
          "blockNumber": "0x383025e",
          "transactionHash": "0x430af3ac268dabc6e26215fdf3f6a05d6e4057c6dcb51ce2e973d52548e8281f",
          "transactionIndex": "0x4",
          "logIndex": "0x11",
          "removed": false
        },
        {
          "address": "0x6edce65403992e310a62460808c4b910d972f10f",
          "topics": [
            "0x1ab700d4ced0c005b164c0f789fd09fcbb0156d4c2041b8a3bfbcd961cd1567f"
          ],
          "data": "0x000000000000000000000000000000000000000000000000000000000000006000000000000000000000000000000000000000000000000000000000000001800000000000000000000000004f7cd4da19abb31b0ec98b9066b9e857b1bf9c0e00000000000000000000000000000000000000000000000000000000000000f101000000000000000600009d27000000000000000000000000f6a6de2617640563a89d3cffb117845254869aea00009d4b000000000000000000000000143c2ad2e9bfa8d8d477f68be32202b56a83d1af8a4407bb8682092f94bd7218ed3ecca4fbfd7072beca0413da14ba120ff07fb1000000000000000000000000000000000000000000000000000000000000002000000000000000000000000000000000000000000000000000000000000000215468697320697320616e206f7264657265642074657374206d657373616765322e00000000000000000000000000000000000000000000000000000000000000000000000000000000000000000000000000000000000000000000000000000000000000000000000000000000004a000301003102000000000000000000000000000186a0143c2ad2e9bfa8d8d477f68be32202b56a83d1af000000000000000000000000010011010000000000000000000000000001388000000000000000000000000000000000000000000000",
          "blockHash": "0x8071e3682159b82d2789281f7dc404ee3a1da0a1a9935c4c68a030b451642057",
          "blockNumber": "0x383025e",
          "transactionHash": "0x430af3ac268dabc6e26215fdf3f6a05d6e4057c6dcb51ce2e973d52548e8281f",
          "transactionIndex": "0x4",
          "logIndex": "0x12",
          "removed": false
        }
      ],
      "logsBloom": "0x00000000000000000000000000000000000000000000000000000000000000000000000000000000200000000000000000000000008000000000000000000000000000000000000000000000000000000000000000000000000000000000000000000000000000008200000000000000000000000000000000000000000000000000000000000020000000080000000000000000000000010000000000000000000000008000000000102000000000000000000000400000000440000000000000000000000000000000000000000000000000000000000000000000000000000000040000000000000000000000002000000000000000000000000000000000",
      "type": "0x2",
      "transactionHash": "0x430af3ac268dabc6e26215fdf3f6a05d6e4057c6dcb51ce2e973d52548e8281f",
      "transactionIndex": "0x4",
      "blockHash": "0x8071e3682159b82d2789281f7dc404ee3a1da0a1a9935c4c68a030b451642057",
      "blockNumber": "0x383025e",
      "gasUsed": "0x10592c",
      "effectiveGasPrice": "0x5f5e100",
      "from": "0x436f795b64e23e6ce7792af4923a68afd3967952",
      "to": "0xf6a6de2617640563a89d3cffb117845254869aea",
      "contractAddress": null,
      "gasUsedForL1": "0xbe8d3",
      "l1BlockNumber": "0x5e95fb"
    }
  ],
  "libraries": [],
  "pending": [],
  "returns": {},
  "timestamp": 1719502382,
  "chain": 421614,
  "commit": "089d489"
}