{
  "transactions": [
    {
      "hash": null,
      "transactionType": "CALL",
      "contractName": null,
      "contractAddress": "0x3253a335e7bffb4790aa4c25c4250d206e9b9773",
      "function": "approve(address,uint256)",
      "arguments": [
        "0x0d7aB83370b492f2AB096c80111381674456e8d8",
        "100"
      ],
      "transaction": {
        "from": "0x436f795b64e23e6ce7792af4923a68afd3967952",
        "to": "0x3253a335e7bffb4790aa4c25c4250d206e9b9773",
        "gas": "0x49641",
        "value": "0x0",
        "input": "0x095ea7b30000000000000000000000000d7ab83370b492f2ab096c80111381674456e8d80000000000000000000000000000000000000000000000000000000000000064",
        "nonce": "0x2f",
        "chainId": "0x66eee",
        "accessList": null,
        "type": null
      },
      "additionalContracts": [],
      "isFixedGasLimit": false
    },
    {
      "hash": null,
      "transactionType": "CALL",
      "contractName": null,
      "contractAddress": "0x0d7ab83370b492f2ab096c80111381674456e8d8",
      "function": "sendToken((uint32,bytes32,uint256,uint256,bytes,bytes,bytes),(uint256,uint256),address)",
      "arguments": [
        "(40232, 0x000000000000000000000000ffe93ac76d453035979fddbbe7e5d61b6b2d2418, 100, 99, 0x000301001303000000000000000000000000000000030d40, 0x0000000000000000000000007d8524950828398dd1d607fc764e79a89728112c0000000000000000000000005fd84259d66cd46123540766be93dfe6d43130d700000000000000000000000000000000000000000000000000000000000000640000000000000000000000000000000000000000000000000000000000000050, 0x)",
        "(1014102290846361, 0)",
        "0xF1410D2d62dC28d1b977dA8e84FB743434988720"
      ],
      "transaction": {
        "from": "0x436f795b64e23e6ce7792af4923a68afd3967952",
        "to": "0x0d7ab83370b492f2ab096c80111381674456e8d8",
        "gas": "0x61b64",
        "value": "0x39a5216cfd299",
        "input": "0xcbef2aa9000000000000000000000000000000000000000000000000000000000000008000000000000000000000000000000000000000000000000000039a5216cfd2990000000000000000000000000000000000000000000000000000000000000000000000000000000000000000f1410d2d62dc28d1b977da8e84fb7434349887200000000000000000000000000000000000000000000000000000000000009d28000000000000000000000000ffe93ac76d453035979fddbbe7e5d61b6b2d24180000000000000000000000000000000000000000000000000000000000000064000000000000000000000000000000000000000000000000000000000000006300000000000000000000000000000000000000000000000000000000000000e0000000000000000000000000000000000000000000000000000000000000012000000000000000000000000000000000000000000000000000000000000001c00000000000000000000000000000000000000000000000000000000000000018000301001303000000000000000000000000000000030d40000000000000000000000000000000000000000000000000000000000000000000000000000000800000000000000000000000007d8524950828398dd1d607fc764e79a89728112c0000000000000000000000005fd84259d66cd46123540766be93dfe6d43130d7000000000000000000000000000000000000000000000000000000000000006400000000000000000000000000000000000000000000000000000000000000500000000000000000000000000000000000000000000000000000000000000000",
        "nonce": "0x30",
        "chainId": "0x66eee",
        "accessList": null,
        "type": null
      },
      "additionalContracts": [],
      "isFixedGasLimit": false
    }
  ],
  "receipts": [],
  "libraries": [],
  "pending": [],
  "returns": {},
  "timestamp": 1720169413,
  "chain": 421614,
  "commit": "089d489"
}