{
  "transactions": [
    {
      "hash": "0x59f2316dd31c76700cc6caa175cf201696fbdfc729704286770bc225dc836055",
      "transactionType": "CALL",
      "contractName": null,
      "contractAddress": "0x3253a335e7bffb4790aa4c25c4250d206e9b9773",
      "function": "approve(address,uint256)",
      "arguments": [
        "0x0d7aB83370b492f2AB096c80111381674456e8d8",
        "100"
      ],
      "transaction": {
        "from": "0x436f795b64e23e6ce7792af4923a68afd3967952",
        "to": "0x3253a335e7bffb4790aa4c25c4250d206e9b9773",
        "gas": "0xb06ba",
        "value": "0x0",
        "input": "0x095ea7b30000000000000000000000000d7ab83370b492f2ab096c80111381674456e8d80000000000000000000000000000000000000000000000000000000000000064",
        "nonce": "0x31",
        "chainId": "0x66eee",
        "accessList": null,
        "type": null
      },
      "additionalContracts": [],
      "isFixedGasLimit": false
    },
    {
      "hash": "0xa03e859bea6aa51c8b8a2b6c874291748bdf09eb3c377d1122242f0b2f6ec4cc",
      "transactionType": "CALL",
      "contractName": null,
      "contractAddress": "0x0d7ab83370b492f2ab096c80111381674456e8d8",
      "function": "sendToken((uint32,bytes32,uint256,uint256,bytes,bytes,bytes),(uint256,uint256),address)",
      "arguments": [
        "(40232, 0x00000000000000000000000089e20ef8ccdf9fc8d15fb7e69fd9e0458c6ec00c, 100, 99, 0x000301001303000000000000000000000000000000030d40, 0x0000000000000000000000007d8524950828398dd1d607fc764e79a89728112c0000000000000000000000005fd84259d66cd46123540766be93dfe6d43130d700000000000000000000000000000000000000000000000000000000000000640000000000000000000000000000000000000000000000000000000000000064, 0x)",
        "(1069370498620569, 0)",
        "0xF1410D2d62dC28d1b977dA8e84FB743434988720"
      ],
      "transaction": {
        "from": "0x436f795b64e23e6ce7792af4923a68afd3967952",
        "to": "0x0d7ab83370b492f2ab096c80111381674456e8d8",
        "gas": "0x61b64",
        "value": "0x3cc9638b41c99",
        "input": "0xcbef2aa900000000000000000000000000000000000000000000000000000000000000800000000000000000000000000000000000000000000000000003cc9638b41c990000000000000000000000000000000000000000000000000000000000000000000000000000000000000000f1410d2d62dc28d1b977da8e84fb7434349887200000000000000000000000000000000000000000000000000000000000009d2800000000000000000000000089e20ef8ccdf9fc8d15fb7e69fd9e0458c6ec00c0000000000000000000000000000000000000000000000000000000000000064000000000000000000000000000000000000000000000000000000000000006300000000000000000000000000000000000000000000000000000000000000e0000000000000000000000000000000000000000000000000000000000000012000000000000000000000000000000000000000000000000000000000000001c00000000000000000000000000000000000000000000000000000000000000018000301001303000000000000000000000000000000030d40000000000000000000000000000000000000000000000000000000000000000000000000000000800000000000000000000000007d8524950828398dd1d607fc764e79a89728112c0000000000000000000000005fd84259d66cd46123540766be93dfe6d43130d7000000000000000000000000000000000000000000000000000000000000006400000000000000000000000000000000000000000000000000000000000000640000000000000000000000000000000000000000000000000000000000000000",
        "nonce": "0x32",
        "chainId": "0x66eee",
        "accessList": null,
        "type": null
      },
      "additionalContracts": [],
      "isFixedGasLimit": false
    }
  ],
  "receipts": [
    {
      "status": "0x1",
      "cumulativeGasUsed": "0x5197ea",
      "logs": [
        {
          "address": "0x3253a335e7bffb4790aa4c25c4250d206e9b9773",
          "topics": [
            "0x8c5be1e5ebec7d5bd14f71427d1e84f3dd0314c0f7b2291e5b200ac8c7c3b925",
            "0x000000000000000000000000436f795b64e23e6ce7792af4923a68afd3967952",
            "0x0000000000000000000000000d7ab83370b492f2ab096c80111381674456e8d8"
          ],
          "data": "0x0000000000000000000000000000000000000000000000000000000000000064",
          "blockHash": "0x680c32c8b2f43aa010ff50a19b5069e1ebd5b185bfb2dcb3cd66d8733148b727",
          "blockNumber": "0x3a6e6f8",
          "transactionHash": "0x59f2316dd31c76700cc6caa175cf201696fbdfc729704286770bc225dc836055",
          "transactionIndex": "0x2",
          "logIndex": "0x9",
          "removed": false
        }
      ],
      "logsBloom": "0x00000000000000000000000000000000000000000000010000200000000000000006000000000000000200000000000000000000000000000000000000200000000000000000000000000000000000000000000000000000000000000000000000000000000000000000000000000000000000000000000000000000000000000000000000000000000000000000000000000000000000000000000000000000020000800000000000000000000004000000000000000000000000000000000000000000000000000000000000000000000000000000000000000000000000000010000000000000000000000000000000020000000000000000000000000400",
      "type": "0x2",
      "transactionHash": "0x59f2316dd31c76700cc6caa175cf201696fbdfc729704286770bc225dc836055",
      "transactionIndex": "0x2",
      "blockHash": "0x680c32c8b2f43aa010ff50a19b5069e1ebd5b185bfb2dcb3cd66d8733148b727",
      "blockNumber": "0x3a6e6f8",
      "gasUsed": "0x6ad9c",
      "effectiveGasPrice": "0x5f5e100",
      "from": "0x436f795b64e23e6ce7792af4923a68afd3967952",
      "to": "0x3253a335e7bffb4790aa4c25c4250d206e9b9773",
      "contractAddress": null,
      "gasUsedForL1": "0x5f97d",
      "l1BlockNumber": "0x5f5e71"
    },
    {
      "status": "0x1",
      "cumulativeGasUsed": "0x17603b",
      "logs": [
        {
          "address": "0x3253a335e7bffb4790aa4c25c4250d206e9b9773",
          "topics": [
            "0xddf252ad1be2c89b69c2b068fc378daa952ba7f163c4a11628f55a4df523b3ef",
            "0x000000000000000000000000436f795b64e23e6ce7792af4923a68afd3967952",
            "0x0000000000000000000000000d7ab83370b492f2ab096c80111381674456e8d8"
          ],
          "data": "0x0000000000000000000000000000000000000000000000000000000000000064",
          "blockHash": "0xb8fc18f0cbe3f705eafb7886e095344ebfe3468cd11e7a9b1495bc2fc4f27951",
          "blockNumber": "0x3a6e6fc",
          "transactionHash": "0xa03e859bea6aa51c8b8a2b6c874291748bdf09eb3c377d1122242f0b2f6ec4cc",
          "transactionIndex": "0x2",
          "logIndex": "0x1",
          "removed": false
        },
        {
          "address": "0x3253a335e7bffb4790aa4c25c4250d206e9b9773",
          "topics": [
            "0x8c5be1e5ebec7d5bd14f71427d1e84f3dd0314c0f7b2291e5b200ac8c7c3b925",
            "0x000000000000000000000000436f795b64e23e6ce7792af4923a68afd3967952",
            "0x0000000000000000000000000d7ab83370b492f2ab096c80111381674456e8d8"
          ],
          "data": "0x0000000000000000000000000000000000000000000000000000000000000000",
          "blockHash": "0xb8fc18f0cbe3f705eafb7886e095344ebfe3468cd11e7a9b1495bc2fc4f27951",
          "blockNumber": "0x3a6e6fc",
          "transactionHash": "0xa03e859bea6aa51c8b8a2b6c874291748bdf09eb3c377d1122242f0b2f6ec4cc",
          "transactionIndex": "0x2",
          "logIndex": "0x2",
          "removed": false
        },
        {
          "address": "0x4f7cd4da19abb31b0ec98b9066b9e857b1bf9c0e",
          "topics": [
            "0x61ed099e74a97a1d7f8bb0952a88ca8b7b8ebd00c126ea04671f92a81213318a"
          ],
          "data": "0x0000000000000000000000005df3a1cebbd9c8ba7f8df51fd632a9aef8308897000000000000000000000000000000000000000000000000000332d3a5c637f3",
          "blockHash": "0xb8fc18f0cbe3f705eafb7886e095344ebfe3468cd11e7a9b1495bc2fc4f27951",
          "blockNumber": "0x3a6e6fc",
          "transactionHash": "0xa03e859bea6aa51c8b8a2b6c874291748bdf09eb3c377d1122242f0b2f6ec4cc",
          "transactionIndex": "0x2",
          "logIndex": "0x3",
          "removed": false
        },
        {
          "address": "0x4f7cd4da19abb31b0ec98b9066b9e857b1bf9c0e",
          "topics": [
            "0x07ea52d82345d6e838192107d8fd7123d9c2ec8e916cd0aad13fd2b60db24644"
          ],
          "data": "0x000000000000000000000000000000000000000000000000000000000000006000000000000000000000000000000000000000000000000000000000000000a000000000000000000000000000000000000000000000000000000000000000c0000000000000000000000000000000000000000000000000000000000000000100000000000000000000000053f488e93b4f1b60e8e83aa374dbe1780a1ee8a800000000000000000000000000000000000000000000000000000000000000000000000000000000000000000000000000000000000000000000000000000001000000000000000000000000000000000000000000000000000099c292ede4a6",
          "blockHash": "0xb8fc18f0cbe3f705eafb7886e095344ebfe3468cd11e7a9b1495bc2fc4f27951",
          "blockNumber": "0x3a6e6fc",
          "transactionHash": "0xa03e859bea6aa51c8b8a2b6c874291748bdf09eb3c377d1122242f0b2f6ec4cc",
          "transactionIndex": "0x2",
          "logIndex": "0x4",
          "removed": false
        },
        {
          "address": "0x6edce65403992e310a62460808c4b910d972f10f",
          "topics": [
            "0x1ab700d4ced0c005b164c0f789fd09fcbb0156d4c2041b8a3bfbcd961cd1567f"
          ],
          "data": "0x000000000000000000000000000000000000000000000000000000000000006000000000000000000000000000000000000000000000000000000000000001c00000000000000000000000004f7cd4da19abb31b0ec98b9066b9e857b1bf9c0e000000000000000000000000000000000000000000000000000000000000013c01000000000000004400009d27000000000000000000000000cf26a197b5353ff886919c2a2fb4c45fe233dd3f00009d28000000000000000000000000c48c0736c8ae67a8c54dfb01d7ecc7190c12a0426b2f9015d2ee80f0f79d77b581af8fdfd6af65299e02a85518d109a2330d539701000100000000000000000000000089e20ef8ccdf9fc8d15fb7e69fd9e0458c6ec00c0000000000000063000000000000000000000000436f795b64e23e6ce7792af4923a68afd39679520000000000000000000000007d8524950828398dd1d607fc764e79a89728112c0000000000000000000000005fd84259d66cd46123540766be93dfe6d43130d70000000000000000000000000000000000000000000000000000000000000064000000000000000000000000000000000000000000000000000000000000006400000000000000000000000000000000000000000000000000000000000000000000002c000301001101000000000000000000000000000249f001001303000000000000000000000000000000030d400000000000000000000000000000000000000000",
          "blockHash": "0xb8fc18f0cbe3f705eafb7886e095344ebfe3468cd11e7a9b1495bc2fc4f27951",
          "blockNumber": "0x3a6e6fc",
          "transactionHash": "0xa03e859bea6aa51c8b8a2b6c874291748bdf09eb3c377d1122242f0b2f6ec4cc",
          "transactionIndex": "0x2",
          "logIndex": "0x5",
          "removed": false
        },
        {
          "address": "0x0d7ab83370b492f2ab096c80111381674456e8d8",
          "topics": [
            "0x85496b760a4b7f8d66384b9df21b381f5d1b1e79f229a47aaf4c232edc2fe59a",
            "0x6b2f9015d2ee80f0f79d77b581af8fdfd6af65299e02a85518d109a2330d5397",
            "0x000000000000000000000000436f795b64e23e6ce7792af4923a68afd3967952"
          ],
          "data": "0x0000000000000000000000000000000000000000000000000000000000009d2800000000000000000000000000000000000000000000000000000000000000640000000000000000000000000000000000000000000000000000000000000063",
          "blockHash": "0xb8fc18f0cbe3f705eafb7886e095344ebfe3468cd11e7a9b1495bc2fc4f27951",
          "blockNumber": "0x3a6e6fc",
          "transactionHash": "0xa03e859bea6aa51c8b8a2b6c874291748bdf09eb3c377d1122242f0b2f6ec4cc",
          "transactionIndex": "0x2",
          "logIndex": "0x6",
          "removed": false
        }
      ],
      "logsBloom": "0x00000000000000000000002000000000000000000000010000200000000000000006000000000000200200000000000000000000008000000000000000200000000002000000008000000008000000000000000000000000000000000000000000000000000000008200000000000001000000000000000000000010000000000000000000000020000000080000000000000000000000010000000000000000020000808000000000102000000004000080000000400000000440000000000000000002000000000000000080000000000000000000000000000000000000000090040000000000000000000000002000020000008000000040000000000400",
      "type": "0x2",
      "transactionHash": "0xa03e859bea6aa51c8b8a2b6c874291748bdf09eb3c377d1122242f0b2f6ec4cc",
      "transactionIndex": "0x2",
      "blockHash": "0xb8fc18f0cbe3f705eafb7886e095344ebfe3468cd11e7a9b1495bc2fc4f27951",
      "blockNumber": "0x3a6e6fc",
      "gasUsed": "0x11288b",
      "effectiveGasPrice": "0x5f5e100",
      "from": "0x436f795b64e23e6ce7792af4923a68afd3967952",
      "to": "0x0d7ab83370b492f2ab096c80111381674456e8d8",
      "contractAddress": null,
      "gasUsedForL1": "0xcbcac",
      "l1BlockNumber": "0x5f5e71"
    }
  ],
  "libraries": [],
  "pending": [],
  "returns": {},
  "timestamp": 1720173052,
  "chain": 421614,
  "commit": "089d489"
}