{
  "transactions": [
    {
      "hash": "0x71468d8fb4c9f3092e866bcd4b31556f0a0780e7aea673d307c535f9d9faf8e0",
      "transactionType": "CALL",
      "contractName": null,
      "contractAddress": "0xebebaa535eecc0de6b5467acacc752708cf3050b",
      "function": "send(uint32,string,bytes)",
      "arguments": [
        "40267",
        "\"0x60e06040\"",
        "0x000301003102000000000000000000000000000186a03e1506ee1ebf9f3bf946a83e8e21b967e11f89630000000000000000000000000100110100000000000000000000000000014c08"
      ],
      "transaction": {
        "from": "0x436f795b64e23e6ce7792af4923a68afd3967952",
        "to": "0xebebaa535eecc0de6b5467acacc752708cf3050b",
        "gas": "0x457aab",
        "value": "0x603541563debc8",
        "input": "0xe0539e580000000000000000000000000000000000000000000000000000000000009d4b000000000000000000000000000000000000000000000000000000000000006000000000000000000000000000000000000000000000000000000000000000a0000000000000000000000000000000000000000000000000000000000000000a3078363065303630343000000000000000000000000000000000000000000000000000000000000000000000000000000000000000000000000000000000004a000301003102000000000000000000000000000186a03e1506ee1ebf9f3bf946a83e8e21b967e11f89630000000000000000000000000100110100000000000000000000000000014c0800000000000000000000000000000000000000000000",
        "nonce": "0x11",
        "chainId": "0x66eee",
        "accessList": null,
        "type": null
      },
      "additionalContracts": [],
      "isFixedGasLimit": false
    }
  ],
  "receipts": [
    {
      "status": "0x1",
      "cumulativeGasUsed": "0x52dfe5",
      "logs": [
        {
          "address": "0x4f7cd4da19abb31b0ec98b9066b9e857b1bf9c0e",
          "topics": [
            "0x61ed099e74a97a1d7f8bb0952a88ca8b7b8ebd00c126ea04671f92a81213318a"
          ],
          "data": "0x0000000000000000000000005df3a1cebbd9c8ba7f8df51fd632a9aef8308897000000000000000000000000000000000000000000000000006032254e4f547d",
          "blockHash": "0x26457c7cd478d14e9b2c3cc710da2cfe343d63c4ca9f1affbad02164ac8576b9",
          "blockNumber": "0x381b191",
          "transactionHash": "0x71468d8fb4c9f3092e866bcd4b31556f0a0780e7aea673d307c535f9d9faf8e0",
          "transactionIndex": "0x2",
          "logIndex": "0x6",
          "removed": false
        },
        {
          "address": "0x4f7cd4da19abb31b0ec98b9066b9e857b1bf9c0e",
          "topics": [
            "0x07ea52d82345d6e838192107d8fd7123d9c2ec8e916cd0aad13fd2b60db24644"
          ],
          "data": "0x000000000000000000000000000000000000000000000000000000000000006000000000000000000000000000000000000000000000000000000000000000a000000000000000000000000000000000000000000000000000000000000000c0000000000000000000000000000000000000000000000000000000000000000100000000000000000000000053f488e93b4f1b60e8e83aa374dbe1780a1ee8a8000000000000000000000000000000000000000000000000000000000000000000000000000000000000000000000000000000000000000000000000000000010000000000000000000000000000000000000000000000000000031c07ee974b",
          "blockHash": "0x26457c7cd478d14e9b2c3cc710da2cfe343d63c4ca9f1affbad02164ac8576b9",
          "blockNumber": "0x381b191",
          "transactionHash": "0x71468d8fb4c9f3092e866bcd4b31556f0a0780e7aea673d307c535f9d9faf8e0",
          "transactionIndex": "0x2",
          "logIndex": "0x7",
          "removed": false
        },
        {
          "address": "0x6edce65403992e310a62460808c4b910d972f10f",
          "topics": [
            "0x1ab700d4ced0c005b164c0f789fd09fcbb0156d4c2041b8a3bfbcd961cd1567f"
          ],
          "data": "0x000000000000000000000000000000000000000000000000000000000000006000000000000000000000000000000000000000000000000000000000000001600000000000000000000000004f7cd4da19abb31b0ec98b9066b9e857b1bf9c0e00000000000000000000000000000000000000000000000000000000000000d101000000000000000100009d27000000000000000000000000ebebaa535eecc0de6b5467acacc752708cf3050b00009d4b0000000000000000000000003e1506ee1ebf9f3bf946a83e8e21b967e11f896369433b5dd2d2c14b4f2711454e9bfe8e9655b2b17335af7bcc4bcd5bb7d7e8930000000000000000000000000000000000000000000000000000000000000020000000000000000000000000000000000000000000000000000000000000000a3078363065303630343000000000000000000000000000000000000000000000000000000000000000000000000000000000000000000000000000000000000000000000000000000000000000004a000301003102000000000000000000000000000186a03e1506ee1ebf9f3bf946a83e8e21b967e11f89630000000000000000000000000100110100000000000000000000000000014c0800000000000000000000000000000000000000000000",
          "blockHash": "0x26457c7cd478d14e9b2c3cc710da2cfe343d63c4ca9f1affbad02164ac8576b9",
          "blockNumber": "0x381b191",
          "transactionHash": "0x71468d8fb4c9f3092e866bcd4b31556f0a0780e7aea673d307c535f9d9faf8e0",
          "transactionIndex": "0x2",
          "logIndex": "0x8",
          "removed": false
        }
      ],
      "logsBloom": "0x00000000000000000000000000000000000000000000000000000000000000000000000000000000200000000000000000000000008000000000000000000000000000000000000000000000000000000000000000000000000000000000000000000000000000008200000000000000000000000000000000000000000000000000000000000020000000080000000000000000000000010000000000000000000000008000000000102000000000000000000000400000000440000000000000000000000000000000000000000000000000000000000000000000000000000000040000000000000000000000002000000000000000000000000000000000",
      "type": "0x2",
      "transactionHash": "0x71468d8fb4c9f3092e866bcd4b31556f0a0780e7aea673d307c535f9d9faf8e0",
      "transactionIndex": "0x2",
      "blockHash": "0x26457c7cd478d14e9b2c3cc710da2cfe343d63c4ca9f1affbad02164ac8576b9",
      "blockNumber": "0x381b191",
      "gasUsed": "0x2af79f",
      "effectiveGasPrice": "0x5f5e100",
      "from": "0x436f795b64e23e6ce7792af4923a68afd3967952",
      "to": "0xebebaa535eecc0de6b5467acacc752708cf3050b",
      "contractAddress": null,
      "gasUsedForL1": "0x2799b7",
      "l1BlockNumber": "0x5e8ea6"
    }
  ],
  "libraries": [],
  "pending": [],
  "returns": {},
  "timestamp": 1719479750,
  "chain": 421614,
  "commit": "64c71f8"
}