{
  "transactions": [
    {
      "hash": "0xabb4c81ed6ebaedd34d77d8245f59d67dc3b24323943bb1032408c638233ad81",
      "transactionType": "CALL",
      "contractName": null,
      "contractAddress": "0xebebaa535eecc0de6b5467acacc752708cf3050b",
      "function": "send(uint32,string,bytes)",
      "arguments": [
        "40267",
        "\"Hello, LayerZero!\"",
        "0x000301003102000000000000000000000000000186a03e1506ee1ebf9f3bf946a83e8e21b967e11f8963000000000000000000000000010011010000000000000000000000000000c350"
      ],
      "transaction": {
        "from": "0x436f795b64e23e6ce7792af4923a68afd3967952",
        "to": "0xebebaa535eecc0de6b5467acacc752708cf3050b",
        "gas": "0x4274bc",
        "value": "0x6035651e832ce5",
        "input": "0xe0539e580000000000000000000000000000000000000000000000000000000000009d4b000000000000000000000000000000000000000000000000000000000000006000000000000000000000000000000000000000000000000000000000000000a0000000000000000000000000000000000000000000000000000000000000001148656c6c6f2c204c617965725a65726f21000000000000000000000000000000000000000000000000000000000000000000000000000000000000000000004a000301003102000000000000000000000000000186a03e1506ee1ebf9f3bf946a83e8e21b967e11f8963000000000000000000000000010011010000000000000000000000000000c35000000000000000000000000000000000000000000000",
        "nonce": "0x12",
        "chainId": "0x66eee",
        "accessList": null,
        "type": null
      },
      "additionalContracts": [],
      "isFixedGasLimit": false
    }
  ],
  "receipts": [
    {
      "status": "0x1",
      "cumulativeGasUsed": "0x288342",
      "logs": [
        {
          "address": "0x4f7cd4da19abb31b0ec98b9066b9e857b1bf9c0e",
          "topics": [
            "0x61ed099e74a97a1d7f8bb0952a88ca8b7b8ebd00c126ea04671f92a81213318a"
          ],
          "data": "0x0000000000000000000000005df3a1cebbd9c8ba7f8df51fd632a9aef8308897000000000000000000000000000000000000000000000000006032216c7afca4",
          "blockHash": "0xd4fc3eeba3c7ff02a0dde1a17aa0c3620503c39e713c4f35b7d807844ba9d8ce",
          "blockNumber": "0x381b6be",
          "transactionHash": "0xabb4c81ed6ebaedd34d77d8245f59d67dc3b24323943bb1032408c638233ad81",
          "transactionIndex": "0x1",
          "logIndex": "0x0",
          "removed": false
        },
        {
          "address": "0x4f7cd4da19abb31b0ec98b9066b9e857b1bf9c0e",
          "topics": [
            "0x07ea52d82345d6e838192107d8fd7123d9c2ec8e916cd0aad13fd2b60db24644"
          ],
          "data": "0x000000000000000000000000000000000000000000000000000000000000006000000000000000000000000000000000000000000000000000000000000000a000000000000000000000000000000000000000000000000000000000000000c0000000000000000000000000000000000000000000000000000000000000000100000000000000000000000053f488e93b4f1b60e8e83aa374dbe1780a1ee8a80000000000000000000000000000000000000000000000000000000000000000000000000000000000000000000000000000000000000000000000000000000100000000000000000000000000000000000000000000000000000343b2083041",
          "blockHash": "0xd4fc3eeba3c7ff02a0dde1a17aa0c3620503c39e713c4f35b7d807844ba9d8ce",
          "blockNumber": "0x381b6be",
          "transactionHash": "0xabb4c81ed6ebaedd34d77d8245f59d67dc3b24323943bb1032408c638233ad81",
          "transactionIndex": "0x1",
          "logIndex": "0x1",
          "removed": false
        },
        {
          "address": "0x6edce65403992e310a62460808c4b910d972f10f",
          "topics": [
            "0x1ab700d4ced0c005b164c0f789fd09fcbb0156d4c2041b8a3bfbcd961cd1567f"
          ],
          "data": "0x000000000000000000000000000000000000000000000000000000000000006000000000000000000000000000000000000000000000000000000000000001600000000000000000000000004f7cd4da19abb31b0ec98b9066b9e857b1bf9c0e00000000000000000000000000000000000000000000000000000000000000d101000000000000000200009d27000000000000000000000000ebebaa535eecc0de6b5467acacc752708cf3050b00009d4b0000000000000000000000003e1506ee1ebf9f3bf946a83e8e21b967e11f896303bde9ecffe008c3b5da88b3ccfb9dd4d2332fc7e301baf082b7bf211acadce10000000000000000000000000000000000000000000000000000000000000020000000000000000000000000000000000000000000000000000000000000001148656c6c6f2c204c617965725a65726f21000000000000000000000000000000000000000000000000000000000000000000000000000000000000000000000000000000000000000000000000004a000301003102000000000000000000000000000186a03e1506ee1ebf9f3bf946a83e8e21b967e11f8963000000000000000000000000010011010000000000000000000000000000c35000000000000000000000000000000000000000000000",
          "blockHash": "0xd4fc3eeba3c7ff02a0dde1a17aa0c3620503c39e713c4f35b7d807844ba9d8ce",
          "blockNumber": "0x381b6be",
          "transactionHash": "0xabb4c81ed6ebaedd34d77d8245f59d67dc3b24323943bb1032408c638233ad81",
          "transactionIndex": "0x1",
          "logIndex": "0x2",
          "removed": false
        }
      ],
      "logsBloom": "0x00000000000000000000000000000000000000000000000000000000000000000000000000000000200000000000000000000000008000000000000000000000000000000000000000000000000000000000000000000000000000000000000000000000000000008200000000000000000000000000000000000000000000000000000000000020000000080000000000000000000000010000000000000000000000008000000000102000000000000000000000400000000440000000000000000000000000000000000000000000000000000000000000000000000000000000040000000000000000000000002000000000000000000000000000000000",
      "type": "0x2",
      "transactionHash": "0xabb4c81ed6ebaedd34d77d8245f59d67dc3b24323943bb1032408c638233ad81",
      "transactionIndex": "0x1",
      "blockHash": "0xd4fc3eeba3c7ff02a0dde1a17aa0c3620503c39e713c4f35b7d807844ba9d8ce",
      "blockNumber": "0x381b6be",
      "gasUsed": "0x288342",
      "effectiveGasPrice": "0x5f5e100",
      "from": "0x436f795b64e23e6ce7792af4923a68afd3967952",
      "to": "0xebebaa535eecc0de6b5467acacc752708cf3050b",
      "contractAddress": null,
      "gasUsedForL1": "0x2567de",
      "l1BlockNumber": "0x5e8ec3"
    }
  ],
  "libraries": [],
  "pending": [],
  "returns": {},
  "timestamp": 1719480105,
  "chain": 421614,
  "commit": "64c71f8"
}