{
  "transactions": [
    {
      "hash": "0x82beb55088c59d455da7621904dfec557ce9602ee0946bfd040663f5a98c89ef",
      "transactionType": "CALL",
      "contractName": null,
      "contractAddress": "0xebebaa535eecc0de6b5467acacc752708cf3050b",
      "function": "send(uint32,string,bytes)",
      "arguments": [
        "40267",
        "\"Hello, LayerZero!\"",
        "0x0003010011010000000000000000000000000000c350"
      ],
      "transaction": {
        "from": "0x436f795b64e23e6ce7792af4923a68afd3967952",
        "to": "0xebebaa535eecc0de6b5467acacc752708cf3050b",
        "gas": "0x2a8966",
        "value": "0x6034839ee37906",
        "input": "0xe0539e580000000000000000000000000000000000000000000000000000000000009d4b000000000000000000000000000000000000000000000000000000000000006000000000000000000000000000000000000000000000000000000000000000a0000000000000000000000000000000000000000000000000000000000000001148656c6c6f2c204c617965725a65726f2100000000000000000000000000000000000000000000000000000000000000000000000000000000000000000000160003010011010000000000000000000000000000c35000000000000000000000",
        "nonce": "0x2b",
        "chainId": "0x66eee",
        "accessList": null,
        "type": null
      },
      "additionalContracts": [],
      "isFixedGasLimit": false
    }
  ],
  "receipts": [
    {
      "status": "0x1",
      "cumulativeGasUsed": "0x19edf2",
      "logs": [
        {
          "address": "0x4f7cd4da19abb31b0ec98b9066b9e857b1bf9c0e",
          "topics": [
            "0x61ed099e74a97a1d7f8bb0952a88ca8b7b8ebd00c126ea04671f92a81213318a"
          ],
          "data": "0x0000000000000000000000005df3a1cebbd9c8ba7f8df51fd632a9aef83088970000000000000000000000000000000000000000000000000060319e4ac5c626",
          "blockHash": "0x2bcd2be59a1abc9cfaf25c151858119634e497e3fcf87918791d1d2a50829984",
          "blockNumber": "0x39c4ae7",
          "transactionHash": "0x82beb55088c59d455da7621904dfec557ce9602ee0946bfd040663f5a98c89ef",
          "transactionIndex": "0x1",
          "logIndex": "0x0",
          "removed": false
        },
        {
          "address": "0x4f7cd4da19abb31b0ec98b9066b9e857b1bf9c0e",
          "topics": [
            "0x07ea52d82345d6e838192107d8fd7123d9c2ec8e916cd0aad13fd2b60db24644"
          ],
          "data": "0x000000000000000000000000000000000000000000000000000000000000006000000000000000000000000000000000000000000000000000000000000000a000000000000000000000000000000000000000000000000000000000000000c0000000000000000000000000000000000000000000000000000000000000000100000000000000000000000053f488e93b4f1b60e8e83aa374dbe1780a1ee8a800000000000000000000000000000000000000000000000000000000000000000000000000000000000000000000000000000000000000000000000000000001000000000000000000000000000000000000000000000000000002e5541db2e0",
          "blockHash": "0x2bcd2be59a1abc9cfaf25c151858119634e497e3fcf87918791d1d2a50829984",
          "blockNumber": "0x39c4ae7",
          "transactionHash": "0x82beb55088c59d455da7621904dfec557ce9602ee0946bfd040663f5a98c89ef",
          "transactionIndex": "0x1",
          "logIndex": "0x1",
          "removed": false
        },
        {
          "address": "0x6edce65403992e310a62460808c4b910d972f10f",
          "topics": [
            "0x1ab700d4ced0c005b164c0f789fd09fcbb0156d4c2041b8a3bfbcd961cd1567f"
          ],
          "data": "0x000000000000000000000000000000000000000000000000000000000000006000000000000000000000000000000000000000000000000000000000000001600000000000000000000000004f7cd4da19abb31b0ec98b9066b9e857b1bf9c0e00000000000000000000000000000000000000000000000000000000000000d101000000000000000300009d27000000000000000000000000ebebaa535eecc0de6b5467acacc752708cf3050b00009d4b0000000000000000000000003e1506ee1ebf9f3bf946a83e8e21b967e11f8963255084fa723a8c3b6d0117aff09398723776cf222288ba3cca03411a90d5af480000000000000000000000000000000000000000000000000000000000000020000000000000000000000000000000000000000000000000000000000000001148656c6c6f2c204c617965725a65726f2100000000000000000000000000000000000000000000000000000000000000000000000000000000000000000000000000000000000000000000000000160003010011010000000000000000000000000000c35000000000000000000000",
          "blockHash": "0x2bcd2be59a1abc9cfaf25c151858119634e497e3fcf87918791d1d2a50829984",
          "blockNumber": "0x39c4ae7",
          "transactionHash": "0x82beb55088c59d455da7621904dfec557ce9602ee0946bfd040663f5a98c89ef",
          "transactionIndex": "0x1",
          "logIndex": "0x2",
          "removed": false
        }
      ],
      "logsBloom": "0x00000000000000000000000000000000000000000000000000000000000000000000000000000000200000000000000000000000008000000000000000000000000000000000000000000000000000000000000000000000000000000000000000000000000000008200000000000000000000000000000000000000000000000000000000000020000000080000000000000000000000010000000000000000000000008000000000102000000000000000000000400000000440000000000000000000000000000000000000000000000000000000000000000000000000000000040000000000000000000000002000000000000000000000000000000000",
      "type": "0x2",
      "transactionHash": "0x82beb55088c59d455da7621904dfec557ce9602ee0946bfd040663f5a98c89ef",
      "transactionIndex": "0x1",
      "blockHash": "0x2bcd2be59a1abc9cfaf25c151858119634e497e3fcf87918791d1d2a50829984",
      "blockNumber": "0x39c4ae7",
      "gasUsed": "0x19edf2",
      "effectiveGasPrice": "0x5f5e100",
      "from": "0x436f795b64e23e6ce7792af4923a68afd3967952",
      "to": "0xebebaa535eecc0de6b5467acacc752708cf3050b",
      "contractAddress": null,
      "gasUsedForL1": "0x16cf6b",
      "l1BlockNumber": "0x5f262c"
    }
  ],
  "libraries": [],
  "pending": [],
  "returns": {},
  "timestamp": 1719977871,
  "chain": 421614,
  "commit": "089d489"
}