{
  "transactions": [
    {
      "hash": "0x10a853c9348689505d9da1858a902081df16b32900f4866563966cf6f79d0fac",
      "transactionType": "CALL",
      "contractName": null,
      "contractAddress": "0xb0681a48b42b9941540fa1f4c1b7cc583587c2ea",
      "function": "send(uint32,string,bytes)",
      "arguments": [
        "40267",
        "\"This is an ordered test message1.\"",
        "0x000301003102000000000000000000000000000186a0336fd68e735d4803f9ac3fc7d52b95c4db0f278e0000000000000000000000000100110100000000000000000000000000061a8001000104"
      ],
      "transaction": {
        "from": "0x436f795b64e23e6ce7792af4923a68afd3967952",
        "to": "0xb0681a48b42b9941540fa1f4c1b7cc583587c2ea",
        "gas": "0x45aa4",
        "value": "0x37b5f6d0fa07",
        "input": "0xe0539e580000000000000000000000000000000000000000000000000000000000009d4b000000000000000000000000000000000000000000000000000000000000006000000000000000000000000000000000000000000000000000000000000000c000000000000000000000000000000000000000000000000000000000000000215468697320697320616e206f7264657265642074657374206d657373616765312e00000000000000000000000000000000000000000000000000000000000000000000000000000000000000000000000000000000000000000000000000004e000301003102000000000000000000000000000186a0336fd68e735d4803f9ac3fc7d52b95c4db0f278e0000000000000000000000000100110100000000000000000000000000061a8001000104000000000000000000000000000000000000",
        "nonce": "0x18",
        "chainId": "0xaa37dc",
        "accessList": null,
        "type": null
      },
      "additionalContracts": [],
      "isFixedGasLimit": false
    }
  ],
  "receipts": [
    {
      "status": "0x1",
      "cumulativeGasUsed": "0x39542f",
      "logs": [
        {
          "address": "0xb31d2cb502e25b30c651842c7c3293c51fe6d16f",
          "topics": [
            "0x61ed099e74a97a1d7f8bb0952a88ca8b7b8ebd00c126ea04671f92a81213318a"
          ],
          "data": "0x000000000000000000000000dc0d68899405673b932f0db7f8a49191491a5bcb0000000000000000000000000000000000000000000000000000349689f2e8f0",
          "blockHash": "0xdb82fc046f1b16c4808c4a7d5f1e42d2588588e2769975d795a41db70b2ecc9b",
          "blockNumber": "0xd36af2",
          "transactionHash": "0x10a853c9348689505d9da1858a902081df16b32900f4866563966cf6f79d0fac",
          "transactionIndex": "0x4",
          "logIndex": "0x5b",
          "removed": false
        },
        {
          "address": "0xb31d2cb502e25b30c651842c7c3293c51fe6d16f",
          "topics": [
            "0x07ea52d82345d6e838192107d8fd7123d9c2ec8e916cd0aad13fd2b60db24644"
          ],
          "data": "0x000000000000000000000000000000000000000000000000000000000000006000000000000000000000000000000000000000000000000000000000000000a000000000000000000000000000000000000000000000000000000000000000c00000000000000000000000000000000000000000000000000000000000000001000000000000000000000000d680ec569f269aa7015f7979b4f1239b5aa4582c000000000000000000000000000000000000000000000000000000000000000000000000000000000000000000000000000000000000000000000000000000010000000000000000000000000000000000000000000000000000031f6cde1117",
          "blockHash": "0xdb82fc046f1b16c4808c4a7d5f1e42d2588588e2769975d795a41db70b2ecc9b",
          "blockNumber": "0xd36af2",
          "transactionHash": "0x10a853c9348689505d9da1858a902081df16b32900f4866563966cf6f79d0fac",
          "transactionIndex": "0x4",
          "logIndex": "0x5c",
          "removed": false
        },
        {
          "address": "0x6edce65403992e310a62460808c4b910d972f10f",
          "topics": [
            "0x1ab700d4ced0c005b164c0f789fd09fcbb0156d4c2041b8a3bfbcd961cd1567f"
          ],
          "data": "0x00000000000000000000000000000000000000000000000000000000000000600000000000000000000000000000000000000000000000000000000000000180000000000000000000000000b31d2cb502e25b30c651842c7c3293c51fe6d16f00000000000000000000000000000000000000000000000000000000000000f101000000000000000500009d28000000000000000000000000b0681a48b42b9941540fa1f4c1b7cc583587c2ea00009d4b000000000000000000000000336fd68e735d4803f9ac3fc7d52b95c4db0f278ec0269ab41877b58905c3af85dd04cdbd9912570c6259ec3b7a435eb52c34a4b9000000000000000000000000000000000000000000000000000000000000002000000000000000000000000000000000000000000000000000000000000000215468697320697320616e206f7264657265642074657374206d657373616765312e00000000000000000000000000000000000000000000000000000000000000000000000000000000000000000000000000000000000000000000000000000000000000000000000000000000004e000301003102000000000000000000000000000186a0336fd68e735d4803f9ac3fc7d52b95c4db0f278e0000000000000000000000000100110100000000000000000000000000061a8001000104000000000000000000000000000000000000",
          "blockHash": "0xdb82fc046f1b16c4808c4a7d5f1e42d2588588e2769975d795a41db70b2ecc9b",
          "blockNumber": "0xd36af2",
          "transactionHash": "0x10a853c9348689505d9da1858a902081df16b32900f4866563966cf6f79d0fac",
          "transactionIndex": "0x4",
          "logIndex": "0x5d",
          "removed": false
        }
      ],
      "logsBloom": "0x00000100000000000000000000000000000000000000000000000000000000000000000000004000200000000000000000000000000000000000000000000000000000000000000000000000000000000000000000000000000000000000000000000000000000008200000000000000000000000000000000000000000000000000000000000020000000080000000000000000000000000000000000000000000000008000000000100000000000000000000000400000000440000000000000000000000000000000100000000000000000000000000000000000000000000000040000000000000000000000002000000000000000000000000000000000",
      "type": "0x2",
      "transactionHash": "0x10a853c9348689505d9da1858a902081df16b32900f4866563966cf6f79d0fac",
      "transactionIndex": "0x4",
      "blockHash": "0xdb82fc046f1b16c4808c4a7d5f1e42d2588588e2769975d795a41db70b2ecc9b",
      "blockNumber": "0xd36af2",
      "gasUsed": "0x326fc",
      "effectiveGasPrice": "0xd395cfd",
      "from": "0x436f795b64e23e6ce7792af4923a68afd3967952",
      "to": "0xb0681a48b42b9941540fa1f4c1b7cc583587c2ea",
      "contractAddress": null,
      "l1BaseFeeScalar": "0x1db0",
      "l1BlobBaseFee": "0x2",
      "l1BlobBaseFeeScalar": "0xd2730",
      "l1Fee": "0x66e7ddea5f",
      "l1GasPrice": "0x4e8abbb67",
      "l1GasUsed": "0xac6"
    }
  ],
  "libraries": [],
  "pending": [],
  "returns": {},
  "timestamp": 1719513496,
  "chain": 11155420,
  "commit": "089d489"
}