{
  "transactions": [
    {
      "hash": "0xe78d24e7691ff34209e84fc5269fe55fca3b7d2c0dc136779ecd41a9e1975087",
      "transactionType": "CALL",
      "contractName": null,
      "contractAddress": "0xb0681a48b42b9941540fa1f4c1b7cc583587c2ea",
      "function": "sendBatch(uint32,string[],bytes[],uint256[])",
      "arguments": [
        "40267",
        "[\"This is an ordered test message1.\", \"This is an ordered test message2.\"]",
        "[0x0003010011010000000000000000000000000007a12001000104, 0x0003010011010000000000000000000000000007a12001000104]",
        "[60483286544700, 60483286544700]"
      ],
      "transaction": {
        "from": "0x436f795b64e23e6ce7792af4923a68afd3967952",
        "to": "0xb0681a48b42b9941540fa1f4c1b7cc583587c2ea",
        "gas": "0x68413",
        "value": "0x6e04b99e6278",
        "input": "0xd3efdb660000000000000000000000000000000000000000000000000000000000009d4b000000000000000000000000000000000000000000000000000000000000008000000000000000000000000000000000000000000000000000000000000001a000000000000000000000000000000000000000000000000000000000000002800000000000000000000000000000000000000000000000000000000000000002000000000000000000000000000000000000000000000000000000000000004000000000000000000000000000000000000000000000000000000000000000a000000000000000000000000000000000000000000000000000000000000000215468697320697320616e206f7264657265642074657374206d657373616765312e0000000000000000000000000000000000000000000000000000000000000000000000000000000000000000000000000000000000000000000000000000215468697320697320616e206f7264657265642074657374206d657373616765322e00000000000000000000000000000000000000000000000000000000000000000000000000000000000000000000000000000000000000000000000000000200000000000000000000000000000000000000000000000000000000000000400000000000000000000000000000000000000000000000000000000000000080000000000000000000000000000000000000000000000000000000000000001a0003010011010000000000000000000000000007a12001000104000000000000000000000000000000000000000000000000000000000000000000000000001a0003010011010000000000000000000000000007a120010001040000000000000000000000000000000000000000000000000000000000000000000000000002000000000000000000000000000000000000000000000000000037025ccf313c000000000000000000000000000000000000000000000000000037025ccf313c",
        "nonce": "0x1f",
        "chainId": "0xaa37dc",
        "accessList": null,
        "type": null
      },
      "additionalContracts": [],
      "isFixedGasLimit": false
    }
  ],
  "receipts": [
    {
      "status": "0x1",
      "cumulativeGasUsed": "0x927d36",
      "logs": [
        {
          "address": "0xb31d2cb502e25b30c651842c7c3293c51fe6d16f",
          "topics": [
            "0x61ed099e74a97a1d7f8bb0952a88ca8b7b8ebd00c126ea04671f92a81213318a"
          ],
          "data": "0x000000000000000000000000dc0d68899405673b932f0db7f8a49191491a5bcb00000000000000000000000000000000000000000000000000003414fda14b91",
          "blockHash": "0xf7a776b1a5b68d737cf55f15652efdae5ca75981b7c079e49c84aeebb22144e6",
          "blockNumber": "0xd713e6",
          "transactionHash": "0xe78d24e7691ff34209e84fc5269fe55fca3b7d2c0dc136779ecd41a9e1975087",
          "transactionIndex": "0xb",
          "logIndex": "0xf0",
          "removed": false
        },
        {
          "address": "0xb31d2cb502e25b30c651842c7c3293c51fe6d16f",
          "topics": [
            "0x07ea52d82345d6e838192107d8fd7123d9c2ec8e916cd0aad13fd2b60db24644"
          ],
          "data": "0x000000000000000000000000000000000000000000000000000000000000006000000000000000000000000000000000000000000000000000000000000000a000000000000000000000000000000000000000000000000000000000000000c00000000000000000000000000000000000000000000000000000000000000001000000000000000000000000d680ec569f269aa7015f7979b4f1239b5aa4582c00000000000000000000000000000000000000000000000000000000000000000000000000000000000000000000000000000000000000000000000000000001000000000000000000000000000000000000000000000000000002ed5f2de5ab",
          "blockHash": "0xf7a776b1a5b68d737cf55f15652efdae5ca75981b7c079e49c84aeebb22144e6",
          "blockNumber": "0xd713e6",
          "transactionHash": "0xe78d24e7691ff34209e84fc5269fe55fca3b7d2c0dc136779ecd41a9e1975087",
          "transactionIndex": "0xb",
          "logIndex": "0xf1",
          "removed": false
        },
        {
          "address": "0x6edce65403992e310a62460808c4b910d972f10f",
          "topics": [
            "0x1ab700d4ced0c005b164c0f789fd09fcbb0156d4c2041b8a3bfbcd961cd1567f"
          ],
          "data": "0x00000000000000000000000000000000000000000000000000000000000000600000000000000000000000000000000000000000000000000000000000000180000000000000000000000000b31d2cb502e25b30c651842c7c3293c51fe6d16f00000000000000000000000000000000000000000000000000000000000000f101000000000000000b00009d28000000000000000000000000b0681a48b42b9941540fa1f4c1b7cc583587c2ea00009d4b000000000000000000000000336fd68e735d4803f9ac3fc7d52b95c4db0f278ebe3f73d3668494183e47399bbfa9a90481c6c04388994f0863ca304c9998cf59000000000000000000000000000000000000000000000000000000000000002000000000000000000000000000000000000000000000000000000000000000215468697320697320616e206f7264657265642074657374206d657373616765312e00000000000000000000000000000000000000000000000000000000000000000000000000000000000000000000000000000000000000000000000000000000000000000000000000000000001a0003010011010000000000000000000000000007a12001000104000000000000",
          "blockHash": "0xf7a776b1a5b68d737cf55f15652efdae5ca75981b7c079e49c84aeebb22144e6",
          "blockNumber": "0xd713e6",
          "transactionHash": "0xe78d24e7691ff34209e84fc5269fe55fca3b7d2c0dc136779ecd41a9e1975087",
          "transactionIndex": "0xb",
          "logIndex": "0xf2",
          "removed": false
        },
        {
          "address": "0xb31d2cb502e25b30c651842c7c3293c51fe6d16f",
          "topics": [
            "0x61ed099e74a97a1d7f8bb0952a88ca8b7b8ebd00c126ea04671f92a81213318a"
          ],
          "data": "0x000000000000000000000000dc0d68899405673b932f0db7f8a49191491a5bcb00000000000000000000000000000000000000000000000000003414fda14b91",
          "blockHash": "0xf7a776b1a5b68d737cf55f15652efdae5ca75981b7c079e49c84aeebb22144e6",
          "blockNumber": "0xd713e6",
          "transactionHash": "0xe78d24e7691ff34209e84fc5269fe55fca3b7d2c0dc136779ecd41a9e1975087",
          "transactionIndex": "0xb",
          "logIndex": "0xf3",
          "removed": false
        },
        {
          "address": "0xb31d2cb502e25b30c651842c7c3293c51fe6d16f",
          "topics": [
            "0x07ea52d82345d6e838192107d8fd7123d9c2ec8e916cd0aad13fd2b60db24644"
          ],
          "data": "0x000000000000000000000000000000000000000000000000000000000000006000000000000000000000000000000000000000000000000000000000000000a000000000000000000000000000000000000000000000000000000000000000c00000000000000000000000000000000000000000000000000000000000000001000000000000000000000000d680ec569f269aa7015f7979b4f1239b5aa4582c00000000000000000000000000000000000000000000000000000000000000000000000000000000000000000000000000000000000000000000000000000001000000000000000000000000000000000000000000000000000002ed5f2de5ab",
          "blockHash": "0xf7a776b1a5b68d737cf55f15652efdae5ca75981b7c079e49c84aeebb22144e6",
          "blockNumber": "0xd713e6",
          "transactionHash": "0xe78d24e7691ff34209e84fc5269fe55fca3b7d2c0dc136779ecd41a9e1975087",
          "transactionIndex": "0xb",
          "logIndex": "0xf4",
          "removed": false
        },
        {
          "address": "0x6edce65403992e310a62460808c4b910d972f10f",
          "topics": [
            "0x1ab700d4ced0c005b164c0f789fd09fcbb0156d4c2041b8a3bfbcd961cd1567f"
          ],
          "data": "0x00000000000000000000000000000000000000000000000000000000000000600000000000000000000000000000000000000000000000000000000000000180000000000000000000000000b31d2cb502e25b30c651842c7c3293c51fe6d16f00000000000000000000000000000000000000000000000000000000000000f101000000000000000c00009d28000000000000000000000000b0681a48b42b9941540fa1f4c1b7cc583587c2ea00009d4b000000000000000000000000336fd68e735d4803f9ac3fc7d52b95c4db0f278e5cd418512a0a56ecf60cc81bf76597d109431d43e9167dfceacd8d0537318cd3000000000000000000000000000000000000000000000000000000000000002000000000000000000000000000000000000000000000000000000000000000215468697320697320616e206f7264657265642074657374206d657373616765322e00000000000000000000000000000000000000000000000000000000000000000000000000000000000000000000000000000000000000000000000000000000000000000000000000000000001a0003010011010000000000000000000000000007a12001000104000000000000",
          "blockHash": "0xf7a776b1a5b68d737cf55f15652efdae5ca75981b7c079e49c84aeebb22144e6",
          "blockNumber": "0xd713e6",
          "transactionHash": "0xe78d24e7691ff34209e84fc5269fe55fca3b7d2c0dc136779ecd41a9e1975087",
          "transactionIndex": "0xb",
          "logIndex": "0xf5",
          "removed": false
        }
      ],
      "logsBloom": "0x00000100000000000000000000000000000000000000000000000000000000000000000000004000200000000000000000000000000000000000000000000000000000000000000000000000000000000000000000000000000000000000000000000000000000008200000000000000000000000000000000000000000000000000000000000020000000080000000000000000000000000000000000000000000000008000000000100000000000000000000000400000000440000000000000000000000000000000100000000000000000000000000000000000000000000000040000000000000000000000002000000000000000000000000000000000",
      "type": "0x2",
      "transactionHash": "0xe78d24e7691ff34209e84fc5269fe55fca3b7d2c0dc136779ecd41a9e1975087",
      "transactionIndex": "0xb",
      "blockHash": "0xf7a776b1a5b68d737cf55f15652efdae5ca75981b7c079e49c84aeebb22144e6",
      "blockNumber": "0xd713e6",
      "gasUsed": "0x47491",
      "effectiveGasPrice": "0x44c558",
      "from": "0x436f795b64e23e6ce7792af4923a68afd3967952",
      "to": "0xb0681a48b42b9941540fa1f4c1b7cc583587c2ea",
      "contractAddress": null,
      "l1BaseFeeScalar": "0x1db0",
      "l1BlobBaseFee": "0x3d21",
      "l1BlobBaseFeeScalar": "0xd2730",
      "l1Fee": "0x163dd07f6b0",
      "l1GasPrice": "0xf7952bf7d",
      "l1GasUsed": "0xbd1"
    }
  ],
  "libraries": [],
  "pending": [],
  "returns": {},
  "timestamp": 1719993215,
  "chain": 11155420,
  "commit": "089d489"
}