{
  "transactions": [
    {
      "hash": "0xc3392e7e30e197b57654e3c5f88a9ae71dd057051594ce7e2cd1e8903cc28c1f",
      "transactionType": "CALL",
      "contractName": null,
      "contractAddress": "0xb0681a48b42b9941540fa1f4c1b7cc583587c2ea",
      "function": "send(uint32,string,bytes)",
      "arguments": [
        "40267",
        "\"This is an ordered test message1.\"",
        "0x00030100110100000000000000000000000000061a8001000104"
      ],
      "transaction": {
        "from": "0x436f795b64e23e6ce7792af4923a68afd3967952",
        "to": "0xb0681a48b42b9941540fa1f4c1b7cc583587c2ea",
        "gas": "0x485ab",
        "value": "0x3660c76bb2e2",
        "input": "0xe0539e580000000000000000000000000000000000000000000000000000000000009d4b000000000000000000000000000000000000000000000000000000000000006000000000000000000000000000000000000000000000000000000000000000c000000000000000000000000000000000000000000000000000000000000000215468697320697320616e206f7264657265642074657374206d657373616765312e00000000000000000000000000000000000000000000000000000000000000000000000000000000000000000000000000000000000000000000000000001a00030100110100000000000000000000000000061a8001000104000000000000",
        "nonce": "0xd",
        "chainId": "0xaa37dc",
        "accessList": null,
        "type": null
      },
      "additionalContracts": [],
      "isFixedGasLimit": false
    }
  ],
  "receipts": [
    {
      "status": "0x1",
      "cumulativeGasUsed": "0x3c2d1",
      "logs": [
        {
          "address": "0xb31d2cb502e25b30c651842c7c3293c51fe6d16f",
          "topics": [
            "0x61ed099e74a97a1d7f8bb0952a88ca8b7b8ebd00c126ea04671f92a81213318a"
          ],
          "data": "0x000000000000000000000000dc0d68899405673b932f0db7f8a49191491a5bcb00000000000000000000000000000000000000000000000000003379b201cb41",
          "blockHash": "0x3f80d273fb3c8cf9e9ea57b1bd1375fb3bf92ce19dfa3b8da265de3459b11a02",
          "blockNumber": "0xd3676c",
          "transactionHash": "0xc3392e7e30e197b57654e3c5f88a9ae71dd057051594ce7e2cd1e8903cc28c1f",
          "transactionIndex": "0x1",
          "logIndex": "0x0",
          "removed": false
        },
        {
          "address": "0xb31d2cb502e25b30c651842c7c3293c51fe6d16f",
          "topics": [
            "0x07ea52d82345d6e838192107d8fd7123d9c2ec8e916cd0aad13fd2b60db24644"
          ],
          "data": "0x000000000000000000000000000000000000000000000000000000000000006000000000000000000000000000000000000000000000000000000000000000a000000000000000000000000000000000000000000000000000000000000000c00000000000000000000000000000000000000000000000000000000000000001000000000000000000000000d680ec569f269aa7015f7979b4f1239b5aa4582c00000000000000000000000000000000000000000000000000000000000000000000000000000000000000000000000000000000000000000000000000000001000000000000000000000000000000000000000000000000000002e71569e7a1",
          "blockHash": "0x3f80d273fb3c8cf9e9ea57b1bd1375fb3bf92ce19dfa3b8da265de3459b11a02",
          "blockNumber": "0xd3676c",
          "transactionHash": "0xc3392e7e30e197b57654e3c5f88a9ae71dd057051594ce7e2cd1e8903cc28c1f",
          "transactionIndex": "0x1",
          "logIndex": "0x1",
          "removed": false
        },
        {
          "address": "0x6edce65403992e310a62460808c4b910d972f10f",
          "topics": [
            "0x1ab700d4ced0c005b164c0f789fd09fcbb0156d4c2041b8a3bfbcd961cd1567f"
          ],
          "data": "0x00000000000000000000000000000000000000000000000000000000000000600000000000000000000000000000000000000000000000000000000000000180000000000000000000000000b31d2cb502e25b30c651842c7c3293c51fe6d16f00000000000000000000000000000000000000000000000000000000000000f101000000000000000200009d28000000000000000000000000b0681a48b42b9941540fa1f4c1b7cc583587c2ea00009d4b000000000000000000000000c56698b87fcc0239d9b1a5e82263f415f2d1c32df01d5da65f6e5e6c90f605d738708f84ac809d52d71463cf4deff0947aa22c2e000000000000000000000000000000000000000000000000000000000000002000000000000000000000000000000000000000000000000000000000000000215468697320697320616e206f7264657265642074657374206d657373616765312e00000000000000000000000000000000000000000000000000000000000000000000000000000000000000000000000000000000000000000000000000000000000000000000000000000000001a00030100110100000000000000000000000000061a8001000104000000000000",
          "blockHash": "0x3f80d273fb3c8cf9e9ea57b1bd1375fb3bf92ce19dfa3b8da265de3459b11a02",
          "blockNumber": "0xd3676c",
          "transactionHash": "0xc3392e7e30e197b57654e3c5f88a9ae71dd057051594ce7e2cd1e8903cc28c1f",
          "transactionIndex": "0x1",
          "logIndex": "0x2",
          "removed": false
        }
      ],
      "logsBloom": "0x00000100000000000000000000000000000000000000000000000000000000000000000000004000200000000000000000000000000000000000000000000000000000000000000000000000000000000000000000000000000000000000000000000000000000008200000000000000000000000000000000000000000000000000000000000020000000080000000000000000000000000000000000000000000000008000000000100000000000000000000000400000000440000000000000000000000000000000100000000000000000000000000000000000000000000000040000000000000000000000002000000000000000000000000000000000",
      "type": "0x2",
      "transactionHash": "0xc3392e7e30e197b57654e3c5f88a9ae71dd057051594ce7e2cd1e8903cc28c1f",
      "transactionIndex": "0x1",
      "blockHash": "0x3f80d273fb3c8cf9e9ea57b1bd1375fb3bf92ce19dfa3b8da265de3459b11a02",
      "blockNumber": "0xd3676c",
      "gasUsed": "0x31792",
      "effectiveGasPrice": "0x10618abd",
      "from": "0x436f795b64e23e6ce7792af4923a68afd3967952",
      "to": "0xb0681a48b42b9941540fa1f4c1b7cc583587c2ea",
      "contractAddress": null,
      "l1BaseFeeScalar": "0x1db0",
      "l1BlobBaseFee": "0x1",
      "l1BlobBaseFeeScalar": "0xd2730",
      "l1Fee": "0x57d3eb0284",
      "l1GasPrice": "0x52ae10233",
      "l1GasUsed": "0x8bc"
    }
  ],
  "libraries": [],
  "pending": [],
  "returns": {},
  "timestamp": 1719511690,
  "chain": 11155420,
  "commit": "089d489"
}