{
  "transactions": [
    {
      "hash": "0xcef4acc1f3511fb9907d6dad692a2d0bb5a30c727cd179e0e3ab401841d833a1",
      "transactionType": "CALL",
      "contractName": null,
      "contractAddress": "0xb0681a48b42b9941540fa1f4c1b7cc583587c2ea",
      "function": "sendBatch(uint32,string[],bytes[],uint256[])",
      "arguments": [
        "40267",
        "[\"This is an ordered test message1.\", \"This is an ordered test message2.\"]",
        "[0x000301003102000000000000000000000000000186a0336fd68e735d4803f9ac3fc7d52b95c4db0f278e000000000000000000000000010011010000000000000000000000000007a12001000104, 0x000301003102000000000000000000000000000186a0336fd68e735d4803f9ac3fc7d52b95c4db0f278e000000000000000000000000010011010000000000000000000000000007a12001000104]",
        "[60483286544719, 60483286544719]"
      ],
      "transaction": {
        "from": "0x436f795b64e23e6ce7792af4923a68afd3967952",
        "to": "0xb0681a48b42b9941540fa1f4c1b7cc583587c2ea",
        "gas": "0x651d0",
        "value": "0x6e04b99e629e",
        "input": "0xd3efdb660000000000000000000000000000000000000000000000000000000000009d4b000000000000000000000000000000000000000000000000000000000000008000000000000000000000000000000000000000000000000000000000000001a000000000000000000000000000000000000000000000000000000000000003000000000000000000000000000000000000000000000000000000000000000002000000000000000000000000000000000000000000000000000000000000004000000000000000000000000000000000000000000000000000000000000000a000000000000000000000000000000000000000000000000000000000000000215468697320697320616e206f7264657265642074657374206d657373616765312e0000000000000000000000000000000000000000000000000000000000000000000000000000000000000000000000000000000000000000000000000000215468697320697320616e206f7264657265642074657374206d657373616765322e000000000000000000000000000000000000000000000000000000000000000000000000000000000000000000000000000000000000000000000000000002000000000000000000000000000000000000000000000000000000000000004000000000000000000000000000000000000000000000000000000000000000c0000000000000000000000000000000000000000000000000000000000000004e000301003102000000000000000000000000000186a0336fd68e735d4803f9ac3fc7d52b95c4db0f278e000000000000000000000000010011010000000000000000000000000007a12001000104000000000000000000000000000000000000000000000000000000000000000000000000000000000000000000000000004e000301003102000000000000000000000000000186a0336fd68e735d4803f9ac3fc7d52b95c4db0f278e000000000000000000000000010011010000000000000000000000000007a120010001040000000000000000000000000000000000000000000000000000000000000000000000000000000000000000000000000002000000000000000000000000000000000000000000000000000037025ccf314f000000000000000000000000000000000000000000000000000037025ccf314f",
        "nonce": "0x1e",
        "chainId": "0xaa37dc",
        "accessList": null,
        "type": null
      },
      "additionalContracts": [],
      "isFixedGasLimit": false
    }
  ],
  "receipts": [
    {
      "status": "0x1",
      "cumulativeGasUsed": "0x4e3793",
      "logs": [
        {
          "address": "0xb31d2cb502e25b30c651842c7c3293c51fe6d16f",
          "topics": [
            "0x61ed099e74a97a1d7f8bb0952a88ca8b7b8ebd00c126ea04671f92a81213318a"
          ],
          "data": "0x000000000000000000000000dc0d68899405673b932f0db7f8a49191491a5bcb00000000000000000000000000000000000000000000000000003414fda14ba4",
          "blockHash": "0xbc8a846293dede7b5e5c5ca899dc4a87d064914178644cdb8c267fa8f4c5ec15",
          "blockNumber": "0xd711b1",
          "transactionHash": "0xcef4acc1f3511fb9907d6dad692a2d0bb5a30c727cd179e0e3ab401841d833a1",
          "transactionIndex": "0x6",
          "logIndex": "0x89",
          "removed": false
        },
        {
          "address": "0xb31d2cb502e25b30c651842c7c3293c51fe6d16f",
          "topics": [
            "0x07ea52d82345d6e838192107d8fd7123d9c2ec8e916cd0aad13fd2b60db24644"
          ],
          "data": "0x000000000000000000000000000000000000000000000000000000000000006000000000000000000000000000000000000000000000000000000000000000a000000000000000000000000000000000000000000000000000000000000000c00000000000000000000000000000000000000000000000000000000000000001000000000000000000000000d680ec569f269aa7015f7979b4f1239b5aa4582c00000000000000000000000000000000000000000000000000000000000000000000000000000000000000000000000000000000000000000000000000000001000000000000000000000000000000000000000000000000000002ed5f2de5ab",
          "blockHash": "0xbc8a846293dede7b5e5c5ca899dc4a87d064914178644cdb8c267fa8f4c5ec15",
          "blockNumber": "0xd711b1",
          "transactionHash": "0xcef4acc1f3511fb9907d6dad692a2d0bb5a30c727cd179e0e3ab401841d833a1",
          "transactionIndex": "0x6",
          "logIndex": "0x8a",
          "removed": false
        },
        {
          "address": "0x6edce65403992e310a62460808c4b910d972f10f",
          "topics": [
            "0x1ab700d4ced0c005b164c0f789fd09fcbb0156d4c2041b8a3bfbcd961cd1567f"
          ],
          "data": "0x00000000000000000000000000000000000000000000000000000000000000600000000000000000000000000000000000000000000000000000000000000180000000000000000000000000b31d2cb502e25b30c651842c7c3293c51fe6d16f00000000000000000000000000000000000000000000000000000000000000f101000000000000000900009d28000000000000000000000000b0681a48b42b9941540fa1f4c1b7cc583587c2ea00009d4b000000000000000000000000336fd68e735d4803f9ac3fc7d52b95c4db0f278e8f18decea57a11520d2ca67151e982d89a9d9245667d2d06a2d7315cad258541000000000000000000000000000000000000000000000000000000000000002000000000000000000000000000000000000000000000000000000000000000215468697320697320616e206f7264657265642074657374206d657373616765312e00000000000000000000000000000000000000000000000000000000000000000000000000000000000000000000000000000000000000000000000000000000000000000000000000000000004e000301003102000000000000000000000000000186a0336fd68e735d4803f9ac3fc7d52b95c4db0f278e000000000000000000000000010011010000000000000000000000000007a12001000104000000000000000000000000000000000000",
          "blockHash": "0xbc8a846293dede7b5e5c5ca899dc4a87d064914178644cdb8c267fa8f4c5ec15",
          "blockNumber": "0xd711b1",
          "transactionHash": "0xcef4acc1f3511fb9907d6dad692a2d0bb5a30c727cd179e0e3ab401841d833a1",
          "transactionIndex": "0x6",
          "logIndex": "0x8b",
          "removed": false
        },
        {
          "address": "0xb31d2cb502e25b30c651842c7c3293c51fe6d16f",
          "topics": [
            "0x61ed099e74a97a1d7f8bb0952a88ca8b7b8ebd00c126ea04671f92a81213318a"
          ],
          "data": "0x000000000000000000000000dc0d68899405673b932f0db7f8a49191491a5bcb00000000000000000000000000000000000000000000000000003414fda14ba4",
          "blockHash": "0xbc8a846293dede7b5e5c5ca899dc4a87d064914178644cdb8c267fa8f4c5ec15",
          "blockNumber": "0xd711b1",
          "transactionHash": "0xcef4acc1f3511fb9907d6dad692a2d0bb5a30c727cd179e0e3ab401841d833a1",
          "transactionIndex": "0x6",
          "logIndex": "0x8c",
          "removed": false
        },
        {
          "address": "0xb31d2cb502e25b30c651842c7c3293c51fe6d16f",
          "topics": [
            "0x07ea52d82345d6e838192107d8fd7123d9c2ec8e916cd0aad13fd2b60db24644"
          ],
          "data": "0x000000000000000000000000000000000000000000000000000000000000006000000000000000000000000000000000000000000000000000000000000000a000000000000000000000000000000000000000000000000000000000000000c00000000000000000000000000000000000000000000000000000000000000001000000000000000000000000d680ec569f269aa7015f7979b4f1239b5aa4582c00000000000000000000000000000000000000000000000000000000000000000000000000000000000000000000000000000000000000000000000000000001000000000000000000000000000000000000000000000000000002ed5f2de5ab",
          "blockHash": "0xbc8a846293dede7b5e5c5ca899dc4a87d064914178644cdb8c267fa8f4c5ec15",
          "blockNumber": "0xd711b1",
          "transactionHash": "0xcef4acc1f3511fb9907d6dad692a2d0bb5a30c727cd179e0e3ab401841d833a1",
          "transactionIndex": "0x6",
          "logIndex": "0x8d",
          "removed": false
        },
        {
          "address": "0x6edce65403992e310a62460808c4b910d972f10f",
          "topics": [
            "0x1ab700d4ced0c005b164c0f789fd09fcbb0156d4c2041b8a3bfbcd961cd1567f"
          ],
          "data": "0x00000000000000000000000000000000000000000000000000000000000000600000000000000000000000000000000000000000000000000000000000000180000000000000000000000000b31d2cb502e25b30c651842c7c3293c51fe6d16f00000000000000000000000000000000000000000000000000000000000000f101000000000000000a00009d28000000000000000000000000b0681a48b42b9941540fa1f4c1b7cc583587c2ea00009d4b000000000000000000000000336fd68e735d4803f9ac3fc7d52b95c4db0f278ee67753a9fe5df0c12e89e228b5c39b06276f83a1fe08c6854ac2235b83008987000000000000000000000000000000000000000000000000000000000000002000000000000000000000000000000000000000000000000000000000000000215468697320697320616e206f7264657265642074657374206d657373616765322e00000000000000000000000000000000000000000000000000000000000000000000000000000000000000000000000000000000000000000000000000000000000000000000000000000000004e000301003102000000000000000000000000000186a0336fd68e735d4803f9ac3fc7d52b95c4db0f278e000000000000000000000000010011010000000000000000000000000007a12001000104000000000000000000000000000000000000",
          "blockHash": "0xbc8a846293dede7b5e5c5ca899dc4a87d064914178644cdb8c267fa8f4c5ec15",
          "blockNumber": "0xd711b1",
          "transactionHash": "0xcef4acc1f3511fb9907d6dad692a2d0bb5a30c727cd179e0e3ab401841d833a1",
          "transactionIndex": "0x6",
          "logIndex": "0x8e",
          "removed": false
        }
      ],
      "logsBloom": "0x00000100000000000000000000000000000000000000000000000000000000000000000000004000200000000000000000000000000000000000000000000000000000000000000000000000000000000000000000000000000000000000000000000000000000008200000000000000000000000000000000000000000000000000000000000020000000080000000000000000000000000000000000000000000000008000000000100000000000000000000000400000000440000000000000000000000000000000100000000000000000000000000000000000000000000000040000000000000000000000002000000000000000000000000000000000",
      "type": "0x2",
      "transactionHash": "0xcef4acc1f3511fb9907d6dad692a2d0bb5a30c727cd179e0e3ab401841d833a1",
      "transactionIndex": "0x6",
      "blockHash": "0xbc8a846293dede7b5e5c5ca899dc4a87d064914178644cdb8c267fa8f4c5ec15",
      "blockNumber": "0xd711b1",
      "gasUsed": "0x49345",
      "effectiveGasPrice": "0x2842a7",
      "from": "0x436f795b64e23e6ce7792af4923a68afd3967952",
      "to": "0xb0681a48b42b9941540fa1f4c1b7cc583587c2ea",
      "contractAddress": null,
      "l1BaseFeeScalar": "0x1db0",
      "l1BlobBaseFee": "0x3d21",
      "l1BlobBaseFeeScalar": "0xd2730",
      "l1Fee": "0x1961c098c07",
      "l1GasPrice": "0xee46c3c10",
      "l1GasUsed": "0xe04"
    }
  ],
  "libraries": [],
  "pending": [],
  "returns": {},
  "timestamp": 1719992085,
  "chain": 11155420,
  "commit": "089d489"
}