{
  "transactions": [
    {
      "hash": "0xbc548ecbe305394241b50a7c896610c9fe679f6fdc378a930a3c0324ec858615",
      "transactionType": "CALL",
      "contractName": null,
      "contractAddress": "0xb0681a48b42b9941540fa1f4c1b7cc583587c2ea",
      "function": "send(uint32,string,bytes)",
      "arguments": [
        "40267",
        "\"This is an ordered test message1.\"",
        "0x000301003102000000000000000000000000000186a0336fd68e735d4803f9ac3fc7d52b95c4db0f278e0000000000000000000000000100110100000000000000000000000000061a8001000104"
      ],
      "transaction": {
        "from": "0x436f795b64e23e6ce7792af4923a68afd3967952",
        "to": "0xb0681a48b42b9941540fa1f4c1b7cc583587c2ea",
        "gas": "0x45aa4",
        "value": "0x36e940c76a22",
        "input": "0xe0539e580000000000000000000000000000000000000000000000000000000000009d4b000000000000000000000000000000000000000000000000000000000000006000000000000000000000000000000000000000000000000000000000000000c000000000000000000000000000000000000000000000000000000000000000215468697320697320616e206f7264657265642074657374206d657373616765312e00000000000000000000000000000000000000000000000000000000000000000000000000000000000000000000000000000000000000000000000000004e000301003102000000000000000000000000000186a0336fd68e735d4803f9ac3fc7d52b95c4db0f278e0000000000000000000000000100110100000000000000000000000000061a8001000104000000000000000000000000000000000000",
        "nonce": "0x16",
        "chainId": "0xaa37dc",
        "accessList": null,
        "type": null
      },
      "additionalContracts": [],
      "isFixedGasLimit": false
    }
  ],
  "receipts": [
    {
      "status": "0x1",
      "cumulativeGasUsed": "0x3d23b",
      "logs": [
        {
          "address": "0xb31d2cb502e25b30c651842c7c3293c51fe6d16f",
          "topics": [
            "0x61ed099e74a97a1d7f8bb0952a88ca8b7b8ebd00c126ea04671f92a81213318a"
          ],
          "data": "0x000000000000000000000000dc0d68899405673b932f0db7f8a49191491a5bcb000000000000000000000000000000000000000000000000000033eba1fbd821",
          "blockHash": "0x0ee927fba5ce689182fdd369fca035b9234b48487150ccfbbca8cd1a7c2c6622",
          "blockNumber": "0xd36a6f",
          "transactionHash": "0xbc548ecbe305394241b50a7c896610c9fe679f6fdc378a930a3c0324ec858615",
          "transactionIndex": "0x1",
          "logIndex": "0x0",
          "removed": false
        },
        {
          "address": "0xb31d2cb502e25b30c651842c7c3293c51fe6d16f",
          "topics": [
            "0x07ea52d82345d6e838192107d8fd7123d9c2ec8e916cd0aad13fd2b60db24644"
          ],
          "data": "0x000000000000000000000000000000000000000000000000000000000000006000000000000000000000000000000000000000000000000000000000000000a000000000000000000000000000000000000000000000000000000000000000c00000000000000000000000000000000000000000000000000000000000000001000000000000000000000000d680ec569f269aa7015f7979b4f1239b5aa4582c00000000000000000000000000000000000000000000000000000000000000000000000000000000000000000000000000000000000000000000000000000001000000000000000000000000000000000000000000000000000002fd9ecb9201",
          "blockHash": "0x0ee927fba5ce689182fdd369fca035b9234b48487150ccfbbca8cd1a7c2c6622",
          "blockNumber": "0xd36a6f",
          "transactionHash": "0xbc548ecbe305394241b50a7c896610c9fe679f6fdc378a930a3c0324ec858615",
          "transactionIndex": "0x1",
          "logIndex": "0x1",
          "removed": false
        },
        {
          "address": "0x6edce65403992e310a62460808c4b910d972f10f",
          "topics": [
            "0x1ab700d4ced0c005b164c0f789fd09fcbb0156d4c2041b8a3bfbcd961cd1567f"
          ],
          "data": "0x00000000000000000000000000000000000000000000000000000000000000600000000000000000000000000000000000000000000000000000000000000180000000000000000000000000b31d2cb502e25b30c651842c7c3293c51fe6d16f00000000000000000000000000000000000000000000000000000000000000f101000000000000000400009d28000000000000000000000000b0681a48b42b9941540fa1f4c1b7cc583587c2ea00009d4b000000000000000000000000336fd68e735d4803f9ac3fc7d52b95c4db0f278ecf8d93aae5aa24225d70d2ad2cc47139177155738f8cc1c1554f1c18330ad374000000000000000000000000000000000000000000000000000000000000002000000000000000000000000000000000000000000000000000000000000000215468697320697320616e206f7264657265642074657374206d657373616765312e00000000000000000000000000000000000000000000000000000000000000000000000000000000000000000000000000000000000000000000000000000000000000000000000000000000004e000301003102000000000000000000000000000186a0336fd68e735d4803f9ac3fc7d52b95c4db0f278e0000000000000000000000000100110100000000000000000000000000061a8001000104000000000000000000000000000000000000",
          "blockHash": "0x0ee927fba5ce689182fdd369fca035b9234b48487150ccfbbca8cd1a7c2c6622",
          "blockNumber": "0xd36a6f",
          "transactionHash": "0xbc548ecbe305394241b50a7c896610c9fe679f6fdc378a930a3c0324ec858615",
          "transactionIndex": "0x1",
          "logIndex": "0x2",
          "removed": false
        }
      ],
      "logsBloom": "0x00000100000000000000000000000000000000000000000000000000000000000000000000004000200000000000000000000000000000000000000000000000000000000000000000000000000000000000000000000000000000000000000000000000000000008200000000000000000000000000000000000000000000000000000000000020000000080000000000000000000000000000000000000000000000008000000000100000000000000000000000400000000440000000000000000000000000000000100000000000000000000000000000000000000000000000040000000000000000000000002000000000000000000000000000000000",
      "type": "0x2",
      "transactionHash": "0xbc548ecbe305394241b50a7c896610c9fe679f6fdc378a930a3c0324ec858615",
      "transactionIndex": "0x1",
      "blockHash": "0x0ee927fba5ce689182fdd369fca035b9234b48487150ccfbbca8cd1a7c2c6622",
      "blockNumber": "0xd36a6f",
      "gasUsed": "0x326fc",
      "effectiveGasPrice": "0xde92196",
      "from": "0x436f795b64e23e6ce7792af4923a68afd3967952",
      "to": "0xb0681a48b42b9941540fa1f4c1b7cc583587c2ea",
      "contractAddress": null,
      "l1BaseFeeScalar": "0x1db0",
      "l1BlobBaseFee": "0x2",
      "l1BlobBaseFeeScalar": "0xd2730",
      "l1Fee": "0x64d701d1f7",
      "l1GasPrice": "0x4cf715e54",
      "l1GasUsed": "0xac6"
    }
  ],
  "libraries": [],
  "pending": [],
  "returns": {},
  "timestamp": 1719513233,
  "chain": 11155420,
  "commit": "089d489"
}