{
  "transactions": [
    {
      "hash": "0x9151ee1ae1b0b1e4f74e1e6c15b98c3c9b2bc992e90d4019a1ca46b866a44d0c",
      "transactionType": "CALL",
      "contractName": null,
      "contractAddress": "0xb0681a48b42b9941540fa1f4c1b7cc583587c2ea",
      "function": "sendBatch(uint32,string[],bytes[],uint256[])",
      "arguments": [
        "40267",
        "[\"This is an ordered test message1.\", \"This is an ordered test message2.\"]",
        "[0x00030100110100000000000000000000000000061a8001000104, 0x00030100110100000000000000000000000000061a8001000104]",
        "[65387038320898, 65387038320898]"
      ],
      "transaction": {
        "from": "0x436f795b64e23e6ce7792af4923a68afd3967952",
        "to": "0xb0681a48b42b9941540fa1f4c1b7cc583587c2ea",
        "gas": "0x665fa",
        "value": "0x76f036625204",
        "input": "0xd3efdb660000000000000000000000000000000000000000000000000000000000009d4b000000000000000000000000000000000000000000000000000000000000008000000000000000000000000000000000000000000000000000000000000001a000000000000000000000000000000000000000000000000000000000000002800000000000000000000000000000000000000000000000000000000000000002000000000000000000000000000000000000000000000000000000000000004000000000000000000000000000000000000000000000000000000000000000a000000000000000000000000000000000000000000000000000000000000000215468697320697320616e206f7264657265642074657374206d657373616765312e0000000000000000000000000000000000000000000000000000000000000000000000000000000000000000000000000000000000000000000000000000215468697320697320616e206f7264657265642074657374206d657373616765322e00000000000000000000000000000000000000000000000000000000000000000000000000000000000000000000000000000000000000000000000000000200000000000000000000000000000000000000000000000000000000000000400000000000000000000000000000000000000000000000000000000000000080000000000000000000000000000000000000000000000000000000000000001a00030100110100000000000000000000000000061a8001000104000000000000000000000000000000000000000000000000000000000000000000000000001a00030100110100000000000000000000000000061a8001000104000000000000000000000000000000000000000000000000000000000000000000000000000200000000000000000000000000000000000000000000000000003b781b31290200000000000000000000000000000000000000000000000000003b781b312902",
        "nonce": "0x8",
        "chainId": "0xaa37dc",
        "accessList": null,
        "type": null
      },
      "additionalContracts": [],
      "isFixedGasLimit": false
    }
  ],
  "receipts": [
    {
      "status": "0x1",
      "cumulativeGasUsed": "0x2755d6",
      "logs": [
        {
          "address": "0xb31d2cb502e25b30c651842c7c3293c51fe6d16f",
          "topics": [
            "0x61ed099e74a97a1d7f8bb0952a88ca8b7b8ebd00c126ea04671f92a81213318a"
          ],
          "data": "0x000000000000000000000000dc0d68899405673b932f0db7f8a49191491a5bcb000000000000000000000000000000000000000000000000000037b9cc2f5a6f",
          "blockHash": "0x4d128f6c1b882f82e3c2dceed475aa165d8c87d0f9e526c8bb0a281b0b7b22d5",
          "blockNumber": "0xd364f2",
          "transactionHash": "0x9151ee1ae1b0b1e4f74e1e6c15b98c3c9b2bc992e90d4019a1ca46b866a44d0c",
          "transactionIndex": "0x4",
          "logIndex": "0x3d",
          "removed": false
        },
        {
          "address": "0xb31d2cb502e25b30c651842c7c3293c51fe6d16f",
          "topics": [
            "0x07ea52d82345d6e838192107d8fd7123d9c2ec8e916cd0aad13fd2b60db24644"
          ],
          "data": "0x000000000000000000000000000000000000000000000000000000000000006000000000000000000000000000000000000000000000000000000000000000a000000000000000000000000000000000000000000000000000000000000000c00000000000000000000000000000000000000000000000000000000000000001000000000000000000000000d680ec569f269aa7015f7979b4f1239b5aa4582c00000000000000000000000000000000000000000000000000000000000000000000000000000000000000000000000000000000000000000000000000000001000000000000000000000000000000000000000000000000000003be4f01ce93",
          "blockHash": "0x4d128f6c1b882f82e3c2dceed475aa165d8c87d0f9e526c8bb0a281b0b7b22d5",
          "blockNumber": "0xd364f2",
          "transactionHash": "0x9151ee1ae1b0b1e4f74e1e6c15b98c3c9b2bc992e90d4019a1ca46b866a44d0c",
          "transactionIndex": "0x4",
          "logIndex": "0x3e",
          "removed": false
        },
        {
          "address": "0x6edce65403992e310a62460808c4b910d972f10f",
          "topics": [
            "0x1ab700d4ced0c005b164c0f789fd09fcbb0156d4c2041b8a3bfbcd961cd1567f"
          ],
          "data": "0x00000000000000000000000000000000000000000000000000000000000000600000000000000000000000000000000000000000000000000000000000000180000000000000000000000000b31d2cb502e25b30c651842c7c3293c51fe6d16f00000000000000000000000000000000000000000000000000000000000000f101000000000000000100009d28000000000000000000000000b0681a48b42b9941540fa1f4c1b7cc583587c2ea00009d4b000000000000000000000000143c2ad2e9bfa8d8d477f68be32202b56a83d1afd3a4e101d45a086d4220f825e86446107e0ad558cc6a2639c51539907a819262000000000000000000000000000000000000000000000000000000000000002000000000000000000000000000000000000000000000000000000000000000215468697320697320616e206f7264657265642074657374206d657373616765312e00000000000000000000000000000000000000000000000000000000000000000000000000000000000000000000000000000000000000000000000000000000000000000000000000000000001a00030100110100000000000000000000000000061a8001000104000000000000",
          "blockHash": "0x4d128f6c1b882f82e3c2dceed475aa165d8c87d0f9e526c8bb0a281b0b7b22d5",
          "blockNumber": "0xd364f2",
          "transactionHash": "0x9151ee1ae1b0b1e4f74e1e6c15b98c3c9b2bc992e90d4019a1ca46b866a44d0c",
          "transactionIndex": "0x4",
          "logIndex": "0x3f",
          "removed": false
        },
        {
          "address": "0xb31d2cb502e25b30c651842c7c3293c51fe6d16f",
          "topics": [
            "0x61ed099e74a97a1d7f8bb0952a88ca8b7b8ebd00c126ea04671f92a81213318a"
          ],
          "data": "0x000000000000000000000000dc0d68899405673b932f0db7f8a49191491a5bcb000000000000000000000000000000000000000000000000000037b9cc2f5a6f",
          "blockHash": "0x4d128f6c1b882f82e3c2dceed475aa165d8c87d0f9e526c8bb0a281b0b7b22d5",
          "blockNumber": "0xd364f2",
          "transactionHash": "0x9151ee1ae1b0b1e4f74e1e6c15b98c3c9b2bc992e90d4019a1ca46b866a44d0c",
          "transactionIndex": "0x4",
          "logIndex": "0x40",
          "removed": false
        },
        {
          "address": "0xb31d2cb502e25b30c651842c7c3293c51fe6d16f",
          "topics": [
            "0x07ea52d82345d6e838192107d8fd7123d9c2ec8e916cd0aad13fd2b60db24644"
          ],
          "data": "0x000000000000000000000000000000000000000000000000000000000000006000000000000000000000000000000000000000000000000000000000000000a000000000000000000000000000000000000000000000000000000000000000c00000000000000000000000000000000000000000000000000000000000000001000000000000000000000000d680ec569f269aa7015f7979b4f1239b5aa4582c00000000000000000000000000000000000000000000000000000000000000000000000000000000000000000000000000000000000000000000000000000001000000000000000000000000000000000000000000000000000003be4f01ce93",
          "blockHash": "0x4d128f6c1b882f82e3c2dceed475aa165d8c87d0f9e526c8bb0a281b0b7b22d5",
          "blockNumber": "0xd364f2",
          "transactionHash": "0x9151ee1ae1b0b1e4f74e1e6c15b98c3c9b2bc992e90d4019a1ca46b866a44d0c",
          "transactionIndex": "0x4",
          "logIndex": "0x41",
          "removed": false
        },
        {
          "address": "0x6edce65403992e310a62460808c4b910d972f10f",
          "topics": [
            "0x1ab700d4ced0c005b164c0f789fd09fcbb0156d4c2041b8a3bfbcd961cd1567f"
          ],
          "data": "0x00000000000000000000000000000000000000000000000000000000000000600000000000000000000000000000000000000000000000000000000000000180000000000000000000000000b31d2cb502e25b30c651842c7c3293c51fe6d16f00000000000000000000000000000000000000000000000000000000000000f101000000000000000200009d28000000000000000000000000b0681a48b42b9941540fa1f4c1b7cc583587c2ea00009d4b000000000000000000000000143c2ad2e9bfa8d8d477f68be32202b56a83d1af203fb15c3853f5b85c5c655be97939503bb069a7b44282b0c4831bea73b267bb000000000000000000000000000000000000000000000000000000000000002000000000000000000000000000000000000000000000000000000000000000215468697320697320616e206f7264657265642074657374206d657373616765322e00000000000000000000000000000000000000000000000000000000000000000000000000000000000000000000000000000000000000000000000000000000000000000000000000000000001a00030100110100000000000000000000000000061a8001000104000000000000",
          "blockHash": "0x4d128f6c1b882f82e3c2dceed475aa165d8c87d0f9e526c8bb0a281b0b7b22d5",
          "blockNumber": "0xd364f2",
          "transactionHash": "0x9151ee1ae1b0b1e4f74e1e6c15b98c3c9b2bc992e90d4019a1ca46b866a44d0c",
          "transactionIndex": "0x4",
          "logIndex": "0x42",
          "removed": false
        }
      ],
      "logsBloom": "0x00000100000000000000000000000000000000000000000000000000000000000000000000004000200000000000000000000000000000000000000000000000000000000000000000000000000000000000000000000000000000000000000000000000000000008200000000000000000000000000000000000000000000000000000000000020000000080000000000000000000000000000000000000000000000008000000000100000000000000000000000400000000440000000000000000000000000000000100000000000000000000000000000000000000000000000040000000000000000000000002000000000000000000000000000000000",
      "type": "0x2",
      "transactionHash": "0x9151ee1ae1b0b1e4f74e1e6c15b98c3c9b2bc992e90d4019a1ca46b866a44d0c",
      "transactionIndex": "0x4",
      "blockHash": "0x4d128f6c1b882f82e3c2dceed475aa165d8c87d0f9e526c8bb0a281b0b7b22d5",
      "blockNumber": "0xd364f2",
      "gasUsed": "0x4a1df",
      "effectiveGasPrice": "0x1248cff6",
      "from": "0x436f795b64e23e6ce7792af4923a68afd3967952",
      "to": "0xb0681a48b42b9941540fa1f4c1b7cc583587c2ea",
      "contractAddress": null,
      "l1BaseFeeScalar": "0x1db0",
      "l1BlobBaseFee": "0x1",
      "l1BlobBaseFeeScalar": "0xd2730",
      "l1Fee": "0x6989df8f94",
      "l1GasPrice": "0x49c085b23",
      "l1GasUsed": "0xbc4"
    }
  ],
  "libraries": [],
  "pending": [],
  "returns": {},
  "timestamp": 1719510424,
  "chain": 11155420,
  "commit": "089d489"
}