{
  "transactions": [
    {
      "hash": "0x52f3eb4b7857b8b91c2a84054610ce471a97cdfdf3c43800df7291fd17b93559",
      "transactionType": "CALL",
      "contractName": null,
      "contractAddress": "0xb0681a48b42b9941540fa1f4c1b7cc583587c2ea",
      "function": "sendBatch(uint32,string[],bytes[],uint256[])",
      "arguments": [
        "40267",
        "[\"This is an ordered test message1.\", \"This is an ordered test message2.\"]",
        "[0x000301003102000000000000000000000000000003e8000000000000000000000000336fd68e735d4803f9ac3fc7d52b95c4db0f278e010021010000000000000000000000000007a1200000000000000000000000000000000a01000104, 0x000301003102000000000000000000000000000003e8000000000000000000000000336fd68e735d4803f9ac3fc7d52b95c4db0f278e010021010000000000000000000000000007a1200000000000000000000000000000000a01000104]",
        "[60709132108189, 60709132108189]"
      ],
      "transaction": {
        "from": "0x436f795b64e23e6ce7792af4923a68afd3967952",
        "to": "0xb0681a48b42b9941540fa1f4c1b7cc583587c2ea",
        "gas": "0x6b434",
        "value": "0x6e6de482033a",
        "input": "0xd3efdb660000000000000000000000000000000000000000000000000000000000009d4b000000000000000000000000000000000000000000000000000000000000008000000000000000000000000000000000000000000000000000000000000001a000000000000000000000000000000000000000000000000000000000000003000000000000000000000000000000000000000000000000000000000000000002000000000000000000000000000000000000000000000000000000000000004000000000000000000000000000000000000000000000000000000000000000a000000000000000000000000000000000000000000000000000000000000000215468697320697320616e206f7264657265642074657374206d657373616765312e0000000000000000000000000000000000000000000000000000000000000000000000000000000000000000000000000000000000000000000000000000215468697320697320616e206f7264657265642074657374206d657373616765322e000000000000000000000000000000000000000000000000000000000000000000000000000000000000000000000000000000000000000000000000000002000000000000000000000000000000000000000000000000000000000000004000000000000000000000000000000000000000000000000000000000000000c0000000000000000000000000000000000000000000000000000000000000005e000301003102000000000000000000000000000003e8000000000000000000000000336fd68e735d4803f9ac3fc7d52b95c4db0f278e010021010000000000000000000000000007a1200000000000000000000000000000000a010001040000000000000000000000000000000000000000000000000000000000000000005e000301003102000000000000000000000000000003e8000000000000000000000000336fd68e735d4803f9ac3fc7d52b95c4db0f278e010021010000000000000000000000000007a1200000000000000000000000000000000a010001040000000000000000000000000000000000000000000000000000000000000000000200000000000000000000000000000000000000000000000000003736f241019d00000000000000000000000000000000000000000000000000003736f241019d",
        "nonce": "0x20",
        "chainId": "0xaa37dc",
        "accessList": null,
        "type": null
      },
      "additionalContracts": [],
      "isFixedGasLimit": false
    }
  ],
  "receipts": [
    {
      "status": "0x1",
      "cumulativeGasUsed": "0x5f1167",
      "logs": [
        {
          "address": "0xb31d2cb502e25b30c651842c7c3293c51fe6d16f",
          "topics": [
            "0x61ed099e74a97a1d7f8bb0952a88ca8b7b8ebd00c126ea04671f92a81213318a"
          ],
          "data": "0x000000000000000000000000dc0d68899405673b932f0db7f8a49191491a5bcb00000000000000000000000000000000000000000000000000003442296d6c15",
          "blockHash": "0x29b0ba5441c116379c6b7242c635a3b23ac31ff63789ec841575aa0e89425178",
          "blockNumber": "0xd7168b",
          "transactionHash": "0x52f3eb4b7857b8b91c2a84054610ce471a97cdfdf3c43800df7291fd17b93559",
          "transactionIndex": "0x6",
          "logIndex": "0x8f",
          "removed": false
        },
        {
          "address": "0xb31d2cb502e25b30c651842c7c3293c51fe6d16f",
          "topics": [
            "0x07ea52d82345d6e838192107d8fd7123d9c2ec8e916cd0aad13fd2b60db24644"
          ],
          "data": "0x000000000000000000000000000000000000000000000000000000000000006000000000000000000000000000000000000000000000000000000000000000a000000000000000000000000000000000000000000000000000000000000000c00000000000000000000000000000000000000000000000000000000000000001000000000000000000000000d680ec569f269aa7015f7979b4f1239b5aa4582c00000000000000000000000000000000000000000000000000000000000000000000000000000000000000000000000000000000000000000000000000000001000000000000000000000000000000000000000000000000000002f4c8d39588",
          "blockHash": "0x29b0ba5441c116379c6b7242c635a3b23ac31ff63789ec841575aa0e89425178",
          "blockNumber": "0xd7168b",
          "transactionHash": "0x52f3eb4b7857b8b91c2a84054610ce471a97cdfdf3c43800df7291fd17b93559",
          "transactionIndex": "0x6",
          "logIndex": "0x90",
          "removed": false
        },
        {
          "address": "0x6edce65403992e310a62460808c4b910d972f10f",
          "topics": [
            "0x1ab700d4ced0c005b164c0f789fd09fcbb0156d4c2041b8a3bfbcd961cd1567f"
          ],
          "data": "0x00000000000000000000000000000000000000000000000000000000000000600000000000000000000000000000000000000000000000000000000000000180000000000000000000000000b31d2cb502e25b30c651842c7c3293c51fe6d16f00000000000000000000000000000000000000000000000000000000000000f101000000000000000d00009d28000000000000000000000000b0681a48b42b9941540fa1f4c1b7cc583587c2ea00009d4b000000000000000000000000336fd68e735d4803f9ac3fc7d52b95c4db0f278e53fe2549f5c624dc7dc2ab084ff2bb97001d1e93aea90df2edea854a13ba5be2000000000000000000000000000000000000000000000000000000000000002000000000000000000000000000000000000000000000000000000000000000215468697320697320616e206f7264657265642074657374206d657373616765312e00000000000000000000000000000000000000000000000000000000000000000000000000000000000000000000000000000000000000000000000000000000000000000000000000000000005e000301003102000000000000000000000000000003e8000000000000000000000000336fd68e735d4803f9ac3fc7d52b95c4db0f278e010021010000000000000000000000000007a1200000000000000000000000000000000a010001040000",
          "blockHash": "0x29b0ba5441c116379c6b7242c635a3b23ac31ff63789ec841575aa0e89425178",
          "blockNumber": "0xd7168b",
          "transactionHash": "0x52f3eb4b7857b8b91c2a84054610ce471a97cdfdf3c43800df7291fd17b93559",
          "transactionIndex": "0x6",
          "logIndex": "0x91",
          "removed": false
        },
        {
          "address": "0xb31d2cb502e25b30c651842c7c3293c51fe6d16f",
          "topics": [
            "0x61ed099e74a97a1d7f8bb0952a88ca8b7b8ebd00c126ea04671f92a81213318a"
          ],
          "data": "0x000000000000000000000000dc0d68899405673b932f0db7f8a49191491a5bcb00000000000000000000000000000000000000000000000000003442296d6c15",
          "blockHash": "0x29b0ba5441c116379c6b7242c635a3b23ac31ff63789ec841575aa0e89425178",
          "blockNumber": "0xd7168b",
          "transactionHash": "0x52f3eb4b7857b8b91c2a84054610ce471a97cdfdf3c43800df7291fd17b93559",
          "transactionIndex": "0x6",
          "logIndex": "0x92",
          "removed": false
        },
        {
          "address": "0xb31d2cb502e25b30c651842c7c3293c51fe6d16f",
          "topics": [
            "0x07ea52d82345d6e838192107d8fd7123d9c2ec8e916cd0aad13fd2b60db24644"
          ],
          "data": "0x000000000000000000000000000000000000000000000000000000000000006000000000000000000000000000000000000000000000000000000000000000a000000000000000000000000000000000000000000000000000000000000000c00000000000000000000000000000000000000000000000000000000000000001000000000000000000000000d680ec569f269aa7015f7979b4f1239b5aa4582c00000000000000000000000000000000000000000000000000000000000000000000000000000000000000000000000000000000000000000000000000000001000000000000000000000000000000000000000000000000000002f4c8d39588",
          "blockHash": "0x29b0ba5441c116379c6b7242c635a3b23ac31ff63789ec841575aa0e89425178",
          "blockNumber": "0xd7168b",
          "transactionHash": "0x52f3eb4b7857b8b91c2a84054610ce471a97cdfdf3c43800df7291fd17b93559",
          "transactionIndex": "0x6",
          "logIndex": "0x93",
          "removed": false
        },
        {
          "address": "0x6edce65403992e310a62460808c4b910d972f10f",
          "topics": [
            "0x1ab700d4ced0c005b164c0f789fd09fcbb0156d4c2041b8a3bfbcd961cd1567f"
          ],
          "data": "0x00000000000000000000000000000000000000000000000000000000000000600000000000000000000000000000000000000000000000000000000000000180000000000000000000000000b31d2cb502e25b30c651842c7c3293c51fe6d16f00000000000000000000000000000000000000000000000000000000000000f101000000000000000e00009d28000000000000000000000000b0681a48b42b9941540fa1f4c1b7cc583587c2ea00009d4b000000000000000000000000336fd68e735d4803f9ac3fc7d52b95c4db0f278ed4efe5250458f98bdf5ea94cfe40a5cb2f6c4139c87bd9a75b2ec9bc5c149e5f000000000000000000000000000000000000000000000000000000000000002000000000000000000000000000000000000000000000000000000000000000215468697320697320616e206f7264657265642074657374206d657373616765322e00000000000000000000000000000000000000000000000000000000000000000000000000000000000000000000000000000000000000000000000000000000000000000000000000000000005e000301003102000000000000000000000000000003e8000000000000000000000000336fd68e735d4803f9ac3fc7d52b95c4db0f278e010021010000000000000000000000000007a1200000000000000000000000000000000a010001040000",
          "blockHash": "0x29b0ba5441c116379c6b7242c635a3b23ac31ff63789ec841575aa0e89425178",
          "blockNumber": "0xd7168b",
          "transactionHash": "0x52f3eb4b7857b8b91c2a84054610ce471a97cdfdf3c43800df7291fd17b93559",
          "transactionIndex": "0x6",
          "logIndex": "0x94",
          "removed": false
        }
      ],
      "logsBloom": "0x00000100000000000000000000000000000000000000000000000000000000000000000000004000200000000000000000000000000000000000000000000000000000000000000000000000000000000000000000000000000000000000000000000000000000008200000000000000000000000000000000000000000000000000000000000020000000080000000000000000000000000000000000000000000000008000000000100000000000000000000000400000000440000000000000000000000000000000100000000000000000000000000000000000000000000000040000000000000000000000002000000000000000000000000000000000",
      "type": "0x2",
      "transactionHash": "0x52f3eb4b7857b8b91c2a84054610ce471a97cdfdf3c43800df7291fd17b93559",
      "transactionIndex": "0x6",
      "blockHash": "0x29b0ba5441c116379c6b7242c635a3b23ac31ff63789ec841575aa0e89425178",
      "blockNumber": "0xd7168b",
      "gasUsed": "0x49579",
      "effectiveGasPrice": "0x18c56fd",
      "from": "0x436f795b64e23e6ce7792af4923a68afd3967952",
      "to": "0xb0681a48b42b9941540fa1f4c1b7cc583587c2ea",
      "contractAddress": null,
      "l1BaseFeeScalar": "0x1db0",
      "l1BlobBaseFee": "0x1054e",
      "l1BlobBaseFeeScalar": "0xd2730",
      "l1Fee": "0x1a6931768b9",
      "l1GasPrice": "0xefe1ed97d",
      "l1GasUsed": "0xe7c"
    }
  ],
  "libraries": [],
  "pending": [],
  "returns": {},
  "timestamp": 1719994569,
  "chain": 11155420,
  "commit": "089d489"
}