{
  "transactions": [
    {
      "hash": "0x9c335e2479b101c46230aa9ed7f34e5278075e8c3323822d27d2d1f6b5780871",
      "transactionType": "CALL",
      "contractName": null,
      "contractAddress": "0xb0681a48b42b9941540fa1f4c1b7cc583587c2ea",
      "function": "send(uint32,string,bytes)",
      "arguments": [
        "40267",
        "\"This is an ordered test message1.\"",
        "0x000301003102000000000000000000000000000186a0336fd68e735d4803f9ac3fc7d52b95c4db0f278e000000000000000000000000010011010000000000000000000000000007a12001000104"
      ],
      "transaction": {
        "from": "0x6a9dca67ff2f68ced265cf54f91876111ae56b9e",
        "to": "0xb0681a48b42b9941540fa1f4c1b7cc583587c2ea",
        "gas": "0x45aa4",
        "value": "0x373d3a1e3e74",
        "input": "0xe0539e580000000000000000000000000000000000000000000000000000000000009d4b000000000000000000000000000000000000000000000000000000000000006000000000000000000000000000000000000000000000000000000000000000c000000000000000000000000000000000000000000000000000000000000000215468697320697320616e206f7264657265642074657374206d657373616765312e00000000000000000000000000000000000000000000000000000000000000000000000000000000000000000000000000000000000000000000000000004e000301003102000000000000000000000000000186a0336fd68e735d4803f9ac3fc7d52b95c4db0f278e000000000000000000000000010011010000000000000000000000000007a12001000104000000000000000000000000000000000000",
        "nonce": "0x0",
        "chainId": "0xaa37dc",
        "accessList": null,
        "type": null
      },
      "additionalContracts": [],
      "isFixedGasLimit": false
    }
  ],
  "receipts": [
    {
      "status": "0x1",
      "cumulativeGasUsed": "0x10d874",
      "logs": [
        {
          "address": "0xb31d2cb502e25b30c651842c7c3293c51fe6d16f",
          "topics": [
            "0x61ed099e74a97a1d7f8bb0952a88ca8b7b8ebd00c126ea04671f92a81213318a"
          ],
          "data": "0x000000000000000000000000dc0d68899405673b932f0db7f8a49191491a5bcb000000000000000000000000000000000000000000000000000034478ea1ed8d",
          "blockHash": "0x54dcd9510472b50796cd4bb386e374c9f8e38aa8e63b33e88a1c41d8a8dab4ed",
          "blockNumber": "0xd36bf8",
          "transactionHash": "0x9c335e2479b101c46230aa9ed7f34e5278075e8c3323822d27d2d1f6b5780871",
          "transactionIndex": "0x2",
          "logIndex": "0x16",
          "removed": false
        },
        {
          "address": "0xb31d2cb502e25b30c651842c7c3293c51fe6d16f",
          "topics": [
            "0x07ea52d82345d6e838192107d8fd7123d9c2ec8e916cd0aad13fd2b60db24644"
          ],
          "data": "0x000000000000000000000000000000000000000000000000000000000000006000000000000000000000000000000000000000000000000000000000000000a000000000000000000000000000000000000000000000000000000000000000c00000000000000000000000000000000000000000000000000000000000000001000000000000000000000000d680ec569f269aa7015f7979b4f1239b5aa4582c00000000000000000000000000000000000000000000000000000000000000000000000000000000000000000000000000000000000000000000000000000001000000000000000000000000000000000000000000000000000002f5ab7c50e7",
          "blockHash": "0x54dcd9510472b50796cd4bb386e374c9f8e38aa8e63b33e88a1c41d8a8dab4ed",
          "blockNumber": "0xd36bf8",
          "transactionHash": "0x9c335e2479b101c46230aa9ed7f34e5278075e8c3323822d27d2d1f6b5780871",
          "transactionIndex": "0x2",
          "logIndex": "0x17",
          "removed": false
        },
        {
          "address": "0x6edce65403992e310a62460808c4b910d972f10f",
          "topics": [
            "0x1ab700d4ced0c005b164c0f789fd09fcbb0156d4c2041b8a3bfbcd961cd1567f"
          ],
          "data": "0x00000000000000000000000000000000000000000000000000000000000000600000000000000000000000000000000000000000000000000000000000000180000000000000000000000000b31d2cb502e25b30c651842c7c3293c51fe6d16f00000000000000000000000000000000000000000000000000000000000000f101000000000000000800009d28000000000000000000000000b0681a48b42b9941540fa1f4c1b7cc583587c2ea00009d4b000000000000000000000000336fd68e735d4803f9ac3fc7d52b95c4db0f278eea237a60392126990e1e06d0616a58a114b478bc804d00f03b451d4dd9ff04fd000000000000000000000000000000000000000000000000000000000000002000000000000000000000000000000000000000000000000000000000000000215468697320697320616e206f7264657265642074657374206d657373616765312e00000000000000000000000000000000000000000000000000000000000000000000000000000000000000000000000000000000000000000000000000000000000000000000000000000000004e000301003102000000000000000000000000000186a0336fd68e735d4803f9ac3fc7d52b95c4db0f278e000000000000000000000000010011010000000000000000000000000007a12001000104000000000000000000000000000000000000",
          "blockHash": "0x54dcd9510472b50796cd4bb386e374c9f8e38aa8e63b33e88a1c41d8a8dab4ed",
          "blockNumber": "0xd36bf8",
          "transactionHash": "0x9c335e2479b101c46230aa9ed7f34e5278075e8c3323822d27d2d1f6b5780871",
          "transactionIndex": "0x2",
          "logIndex": "0x18",
          "removed": false
        }
      ],
      "logsBloom": "0x00000100000000000000000000000000000000000000000000000000000000000000000000004000200000000000000000000000000000000000000000000000000000000000000000000000000000000000000000000000000000000000000000000000000000008200000000000000000000000000000000000000000000000000000000000020000000080000000000000000000000000000000000000000000000008000000000100000000000000000000000400000000440000000000000000000000000000000100000000000000000000000000000000000000000000000040000000000000000000000002000000000000000000000000000000000",
      "type": "0x2",
      "transactionHash": "0x9c335e2479b101c46230aa9ed7f34e5278075e8c3323822d27d2d1f6b5780871",
      "transactionIndex": "0x2",
      "blockHash": "0x54dcd9510472b50796cd4bb386e374c9f8e38aa8e63b33e88a1c41d8a8dab4ed",
      "blockNumber": "0xd36bf8",
      "gasUsed": "0x326fc",
      "effectiveGasPrice": "0xbc8bfc3",
      "from": "0x6a9dca67ff2f68ced265cf54f91876111ae56b9e",
      "to": "0xb0681a48b42b9941540fa1f4c1b7cc583587c2ea",
      "contractAddress": null,
      "l1BaseFeeScalar": "0x1db0",
      "l1BlobBaseFee": "0x4",
      "l1BlobBaseFeeScalar": "0xd2730",
      "l1Fee": "0x50bdc83668",
      "l1GasPrice": "0x3da0093d1",
      "l1GasUsed": "0xac6"
    }
  ],
  "libraries": [],
  "pending": [],
  "returns": {},
  "timestamp": 1719514020,
  "chain": 11155420,
  "commit": "089d489"
}