{
  "transactions": [
    {
      "hash": "0xf4f62cc025ab192608a7da0301eba41ed85eef780b3d3623e613f598547d0b15",
      "transactionType": "CALL",
      "contractName": null,
      "contractAddress": "0xb0681a48b42b9941540fa1f4c1b7cc583587c2ea",
      "function": "sendBatch(uint32,string[],bytes[],uint256[])",
      "arguments": [
        "40267",
        "[\"This is an ordered test message1.\", \"This is an ordered test message2.\"]",
        "[0x00030100110100000000000000000000000000061a8001000104, 0x00030100110100000000000000000000000000061a8001000104]",
        "[61254669498868, 61254669498868]"
      ],
      "transaction": {
        "from": "0x436f795b64e23e6ce7792af4923a68afd3967952",
        "to": "0xb0681a48b42b9941540fa1f4c1b7cc583587c2ea",
        "gas": "0x665fa",
        "value": "0x6f6beda1f3e8",
        "input": "0xd3efdb660000000000000000000000000000000000000000000000000000000000009d4b000000000000000000000000000000000000000000000000000000000000008000000000000000000000000000000000000000000000000000000000000001a000000000000000000000000000000000000000000000000000000000000002800000000000000000000000000000000000000000000000000000000000000002000000000000000000000000000000000000000000000000000000000000004000000000000000000000000000000000000000000000000000000000000000a000000000000000000000000000000000000000000000000000000000000000215468697320697320616e206f7264657265642074657374206d657373616765312e0000000000000000000000000000000000000000000000000000000000000000000000000000000000000000000000000000000000000000000000000000215468697320697320616e206f7264657265642074657374206d657373616765322e00000000000000000000000000000000000000000000000000000000000000000000000000000000000000000000000000000000000000000000000000000200000000000000000000000000000000000000000000000000000000000000400000000000000000000000000000000000000000000000000000000000000080000000000000000000000000000000000000000000000000000000000000001a00030100110100000000000000000000000000061a8001000104000000000000000000000000000000000000000000000000000000000000000000000000001a00030100110100000000000000000000000000061a80010001040000000000000000000000000000000000000000000000000000000000000000000000000002000000000000000000000000000000000000000000000000000037b5f6d0f9f4000000000000000000000000000000000000000000000000000037b5f6d0f9f4",
        "nonce": "0xa",
        "chainId": "0xaa37dc",
        "accessList": null,
        "type": null
      },
      "additionalContracts": [],
      "isFixedGasLimit": false
    }
  ],
  "receipts": [
    {
      "status": "0x1",
      "cumulativeGasUsed": "0x5991c9",
      "logs": [
        {
          "address": "0xb31d2cb502e25b30c651842c7c3293c51fe6d16f",
          "topics": [
            "0x61ed099e74a97a1d7f8bb0952a88ca8b7b8ebd00c126ea04671f92a81213318a"
          ],
          "data": "0x000000000000000000000000dc0d68899405673b932f0db7f8a49191491a5bcb0000000000000000000000000000000000000000000000000000349689f2e8dd",
          "blockHash": "0xea0ac6377b57b130295d42cc90d6705662b2f65bd363af0e16ca563c0efd975f",
          "blockNumber": "0xd36652",
          "transactionHash": "0xf4f62cc025ab192608a7da0301eba41ed85eef780b3d3623e613f598547d0b15",
          "transactionIndex": "0x5",
          "logIndex": "0x9a",
          "removed": false
        },
        {
          "address": "0xb31d2cb502e25b30c651842c7c3293c51fe6d16f",
          "topics": [
            "0x07ea52d82345d6e838192107d8fd7123d9c2ec8e916cd0aad13fd2b60db24644"
          ],
          "data": "0x000000000000000000000000000000000000000000000000000000000000006000000000000000000000000000000000000000000000000000000000000000a000000000000000000000000000000000000000000000000000000000000000c00000000000000000000000000000000000000000000000000000000000000001000000000000000000000000d680ec569f269aa7015f7979b4f1239b5aa4582c000000000000000000000000000000000000000000000000000000000000000000000000000000000000000000000000000000000000000000000000000000010000000000000000000000000000000000000000000000000000031f6cde1117",
          "blockHash": "0xea0ac6377b57b130295d42cc90d6705662b2f65bd363af0e16ca563c0efd975f",
          "blockNumber": "0xd36652",
          "transactionHash": "0xf4f62cc025ab192608a7da0301eba41ed85eef780b3d3623e613f598547d0b15",
          "transactionIndex": "0x5",
          "logIndex": "0x9b",
          "removed": false
        },
        {
          "address": "0x6edce65403992e310a62460808c4b910d972f10f",
          "topics": [
            "0x1ab700d4ced0c005b164c0f789fd09fcbb0156d4c2041b8a3bfbcd961cd1567f"
          ],
          "data": "0x00000000000000000000000000000000000000000000000000000000000000600000000000000000000000000000000000000000000000000000000000000180000000000000000000000000b31d2cb502e25b30c651842c7c3293c51fe6d16f00000000000000000000000000000000000000000000000000000000000000f101000000000000000100009d28000000000000000000000000b0681a48b42b9941540fa1f4c1b7cc583587c2ea00009d4b00000000000000000000000020314fee3194dfdee3f6902bcb2884c5a12905073358b2dc1409145091a18e6f739c0ab5366d6a8a493856c1887a8a824d26530f000000000000000000000000000000000000000000000000000000000000002000000000000000000000000000000000000000000000000000000000000000215468697320697320616e206f7264657265642074657374206d657373616765312e00000000000000000000000000000000000000000000000000000000000000000000000000000000000000000000000000000000000000000000000000000000000000000000000000000000001a00030100110100000000000000000000000000061a8001000104000000000000",
          "blockHash": "0xea0ac6377b57b130295d42cc90d6705662b2f65bd363af0e16ca563c0efd975f",
          "blockNumber": "0xd36652",
          "transactionHash": "0xf4f62cc025ab192608a7da0301eba41ed85eef780b3d3623e613f598547d0b15",
          "transactionIndex": "0x5",
          "logIndex": "0x9c",
          "removed": false
        },
        {
          "address": "0xb31d2cb502e25b30c651842c7c3293c51fe6d16f",
          "topics": [
            "0x61ed099e74a97a1d7f8bb0952a88ca8b7b8ebd00c126ea04671f92a81213318a"
          ],
          "data": "0x000000000000000000000000dc0d68899405673b932f0db7f8a49191491a5bcb0000000000000000000000000000000000000000000000000000349689f2e8dd",
          "blockHash": "0xea0ac6377b57b130295d42cc90d6705662b2f65bd363af0e16ca563c0efd975f",
          "blockNumber": "0xd36652",
          "transactionHash": "0xf4f62cc025ab192608a7da0301eba41ed85eef780b3d3623e613f598547d0b15",
          "transactionIndex": "0x5",
          "logIndex": "0x9d",
          "removed": false
        },
        {
          "address": "0xb31d2cb502e25b30c651842c7c3293c51fe6d16f",
          "topics": [
            "0x07ea52d82345d6e838192107d8fd7123d9c2ec8e916cd0aad13fd2b60db24644"
          ],
          "data": "0x000000000000000000000000000000000000000000000000000000000000006000000000000000000000000000000000000000000000000000000000000000a000000000000000000000000000000000000000000000000000000000000000c00000000000000000000000000000000000000000000000000000000000000001000000000000000000000000d680ec569f269aa7015f7979b4f1239b5aa4582c000000000000000000000000000000000000000000000000000000000000000000000000000000000000000000000000000000000000000000000000000000010000000000000000000000000000000000000000000000000000031f6cde1117",
          "blockHash": "0xea0ac6377b57b130295d42cc90d6705662b2f65bd363af0e16ca563c0efd975f",
          "blockNumber": "0xd36652",
          "transactionHash": "0xf4f62cc025ab192608a7da0301eba41ed85eef780b3d3623e613f598547d0b15",
          "transactionIndex": "0x5",
          "logIndex": "0x9e",
          "removed": false
        },
        {
          "address": "0x6edce65403992e310a62460808c4b910d972f10f",
          "topics": [
            "0x1ab700d4ced0c005b164c0f789fd09fcbb0156d4c2041b8a3bfbcd961cd1567f"
          ],
          "data": "0x00000000000000000000000000000000000000000000000000000000000000600000000000000000000000000000000000000000000000000000000000000180000000000000000000000000b31d2cb502e25b30c651842c7c3293c51fe6d16f00000000000000000000000000000000000000000000000000000000000000f101000000000000000200009d28000000000000000000000000b0681a48b42b9941540fa1f4c1b7cc583587c2ea00009d4b00000000000000000000000020314fee3194dfdee3f6902bcb2884c5a1290507378785dddb98968f6d94b0576995b5772f24744ac332a666b20f7640a889c16d000000000000000000000000000000000000000000000000000000000000002000000000000000000000000000000000000000000000000000000000000000215468697320697320616e206f7264657265642074657374206d657373616765322e00000000000000000000000000000000000000000000000000000000000000000000000000000000000000000000000000000000000000000000000000000000000000000000000000000000001a00030100110100000000000000000000000000061a8001000104000000000000",
          "blockHash": "0xea0ac6377b57b130295d42cc90d6705662b2f65bd363af0e16ca563c0efd975f",
          "blockNumber": "0xd36652",
          "transactionHash": "0xf4f62cc025ab192608a7da0301eba41ed85eef780b3d3623e613f598547d0b15",
          "transactionIndex": "0x5",
          "logIndex": "0x9f",
          "removed": false
        }
      ],
      "logsBloom": "0x00000100000000000000000000000000000000000000000000000000000000000000000000004000200000000000000000000000000000000000000000000000000000000000000000000000000000000000000000000000000000000000000000000000000000008200000000000000000000000000000000000000000000000000000000000020000000080000000000000000000000000000000000000000000000008000000000100000000000000000000000400000000440000000000000000000000000000000100000000000000000000000000000000000000000000000040000000000000000000000002000000000000000000000000000000000",
      "type": "0x2",
      "transactionHash": "0xf4f62cc025ab192608a7da0301eba41ed85eef780b3d3623e613f598547d0b15",
      "transactionIndex": "0x5",
      "blockHash": "0xea0ac6377b57b130295d42cc90d6705662b2f65bd363af0e16ca563c0efd975f",
      "blockNumber": "0xd36652",
      "gasUsed": "0x4a1df",
      "effectiveGasPrice": "0x115d8135",
      "from": "0x436f795b64e23e6ce7792af4923a68afd3967952",
      "to": "0xb0681a48b42b9941540fa1f4c1b7cc583587c2ea",
      "contractAddress": null,
      "l1BaseFeeScalar": "0x1db0",
      "l1BlobBaseFee": "0x1",
      "l1BlobBaseFeeScalar": "0xd2730",
      "l1Fee": "0x66d24ef92b",
      "l1GasPrice": "0x46e883b4d",
      "l1GasUsed": "0xbec"
    }
  ],
  "libraries": [],
  "pending": [],
  "returns": {},
  "timestamp": 1719511128,
  "chain": 11155420,
  "commit": "089d489"
}